:100000000C942E000C942E040C949D040C940C055E
:100010000C947B050C94EA050C944B000C94550C45
:100020000C944B000C94030C0C9459060C94C806C9
:100030000C9437070C94A6070C9415080C948408AC
:100040000C94F3080C9462090C94D1090C94400AA6
:100050000C94AF0A0C941E0B0C948D0B11241FBE34
:10006000CFEFD4E0DEBFCDBF11E0A0E0B1E0E4E827
:10007000FFE102C005900D92AE34B107D9F724E03C
:10008000AEE4B1E001C01D92A93AB207E1F70E94C7
:100090003E010C94C00F0C94000046305105B8F599
:1000A0006A3048F4E62FF0E0EE0FFF1FE050FF4FFC
:1000B0006081718102C060E070E040FF03C0AFE08A
:1000C000B4E002C0A0EFB0E055954795FA01E451C5
:1000D000FF4F20E030E018C0862F8F7090E00B2E8D
:1000E00002C0880F991F0A94E2F790819A23892B06
:1000F00080837595679575956795759567957595E1
:10010000679535962F5F3F4F243031052CF30895C6
:100110008F929F92AF92BF92CF92DF92EF92FF9217
:10012000CF93DF93EC014A015B01CB01BA0124E6D6
:1001300030E040E050E00E94240F0F2EFAE0CF2E76
:10014000D12CE12CF12CF02DA70196010E94240F57
:1001500040E050E0622FCE010E944D00C501B40185
:10016000A70196010E94240F41E050E0CE010E94B9
:100170004D00DF91CF91FF90EF90DF90CF90BF9037
:10018000AF909F908F9008958F929F92AF92BF9261
:10019000CF92DF92EF92FF92CF93DF93EC014A016F
:1001A0005B01CB01BA0124E630E040E050E00E9460
:1001B000240F0F2EFAE0CF2ED12CE12CF12CF02DB4
:1001C000A70196010E94240F44E050E0622FCE0167
:1001D0000E944D00C501B401A70196010E94240FA1
:1001E00045E050E0CE010E944D00DF91CF91FF909D
:1001F000EF90DF90CF90BF90AF909F908F90089539
:10020000CF93DF93EC011F9908C040E050E06CE50C
:1002100072E08C819D810E94FE0D1E9908C040E015
:1002200050E064E172E08C819D810E94FE0D1C997A
:1002300008C040E050E06DEF71E08C819D810E942C
:10024000FE0DDF91CF910895CF93DF93EC0162997A
:1002500008C040E050E06EE072E08C819D810E9419
:10026000FE0D639908C040E050E068E072E08C81C8
:100270009D810E94FE0DDF91CF91089560E070E0B6
:1002800086E291E00E94D70160E070E086E391E0B1
:100290000E94D70160E070E086E391E00E94D70100
:1002A00060E070E086E391E00E94D70142E060E008
:1002B00071E084E191E00E94D80E41E064E271E0D7
:1002C00084E191E00E94D80E40E050E06DE671E0DC
:1002D00086E391E00E94F30EFFCFCF92DF92EF9280
:1002E000FF920F931F93CF93DF93EC016B012C854B
:1002F0003D8581E090E0232B11F080E090E09D8728
:100300008C872E813F812115310589F40F2EFDE662
:10031000EF2EF1E0FF2EF02D8E0120E030E0A9015C
:1003200062E17AE780E090E00E94F50C37C0032E8E
:10033000000C440B550B60E472E48FE090E00E94E7
:10034000240FADE7B0E00E94430F20EA3FE040E019
:1003500050E00E94240FCA01B9010F2EFDE6EF2ED6
:10036000F1E0FF2EF02D8E0120E030E0A9010E9487
:10037000F50C8C859D85892B49F04A855B856AE063
:100380007FE08E859F850E94FE0D08C04A855B85B3
:1003900067E17FE08E859F850E94FE0DDF91CF9102
:1003A0001F910F91FF90EF90DF90CF900895FC0187
:1003B000268137812336310524F42F5F3F4F378361
:1003C00026830895FC01268137811216130624F432
:1003D00021503109378326830895FC018681978156
:1003E000181619062CF491878087178216820895B3
:1003F000808591859783868308951C9908C0AB01F9
:10040000FC016DEE71E0828593850E94FE0D0895DA
:10041000FC0120853185338722870895FC012681E0
:1004200037813387228708958F929F92AF92BF9230
:10043000CF92DF92EF92FF920F931F93CF93DF93B0
:10044000EC014B01AA84BB8428C00A851B8564018A
:100450000F2EF7EDEF2EF1E0FF2EF02D20E030E033
:10046000A90160E070E0CB010E94F50CF5018481E8
:100470009581892B49F44681578168E870E0CE0167
:100480000A960E94FE0D09C0F5014681578164EC71
:1004900070E0CE010A960E94FE0D1E9BD6CFDF9122
:1004A000CF911F910F91FF90EF90DF90CF90BF9071
:1004B000AF909F908F9008958F929F92AF92BF922E
:1004C000CF92DF92EF92FF920F931F93CF93DF9320
:1004D000EC014B01AA84BB8428C00A851B856401FA
:1004E0000F2EF2EEEF2EF1E0FF2EF02D20E030E0A7
:1004F000A90160E070E0CB010E94F50CF501848158
:100500009581892B49F44681578168E870E0CE01D6
:100510000A960E94FE0D09C0F5014681578164ECE0
:1005200070E0CE010A960E94FE0D1F9BD6CFDF9190
:10053000CF911F910F91FF90EF90DF90CF90BF90E0
:10054000AF909F908F900895CF93DF9300D000D00D
:10055000CDB7DEB780E090E018C0AC014F5F5F4FD1
:100560009A0122953295307F3227207F3227275CEF
:100570003D4F82959295907F9827807F9827FC0128
:10058000E75CFD4F31832083CA018E3091052CF347
:1005900010921A031092190380E090E015C0AC018C
:1005A0004F5F5F4F6DE1649F9001659F300D112497
:1005B0002C573E4F689FF001699FF00D1124EC57B6
:1005C000FE4F31832083CA018330910544F310929A
:1005D000DC011092DB011A82198232C02DE14981BF
:1005E0005A81249FC001259F900D1124FC01E657DC
:1005F000FE4FFC83EB83CF010E947F0F20E64981F1
:100600005A81249FC001259F900D11248B579C4F28
:10061000EB81FC81918B808B938B828B80E89EE0B9
:10062000968B858B8DE1849FF001859FF00D1124C1
:10063000EC57FE4F158214824F5F5F4F5A834983F8
:1006400029813A81243031054CF2ECE1F2E011824B
:1006500010821582148213821282E1E6F0E080E8B3
:1006600080831082109285001092840084E0809331
:10067000810081E080936F000F900F900F900F909A
:10068000DF91CF910895CF93DF9300D0CDB7DEB740
:100690009A838983809146019091470106960E9432
:1006A0007F0F892B59F489819A8190934701809318
:1006B000460161E070E006960E949F0F0F900F9038
:1006C000DF91CF9108950F931F93CF93DF93DC01B8
:1006D000CB01EB01E881F981C0E0D0E004C0EF017B
:1006E0000190F081E02D309779F006811781208507
:1006F000318516964D915D916D917C9119974017BA
:100700005107620773075CF71196FC93EE932097ED
:1007100021F4FC01B183A08302C0B983A883DF91D7
:10072000CF911F910F9108950F931F93CF93DF9354
:10073000DC01CB01EB01E881F981C0E0D0E004C02D
:10074000EF010190F081E02D309779F00281138163
:100750002481358112964D915D916D917C91159713
:1007600040175107620773075CF71196FC93EE93ED
:10077000209721F4FC01B183A08302C0B983A88330
:10078000DF91CF911F910F910895DC01ED91FC91C4
:100790001197309759F48FEF8093EC008093ED0020
:1007A0008093EE0081E083BF8895FCCF208131816A
:1007B0002D933C93CF010895FB0120813181FC01F1
:1007C00031832083FB01918380830895FB01208185
:1007D0003181FC0131832083FB0191838083089563
:1007E000DC01ED91FC911197208131812D933C9397
:1007F000CF010895CF93DF93E0914801F091490133
:10080000C281D381E0915E01F0915F01309719F1CF
:1008100080914A0190914B01892BE9F0209769F072
:1008200086819781A085B1854E815F8168857985B4
:10083000841B950BA60BB70B72F48AE491E00E941F
:10084000F00368E471E00E94E60380914801909112
:1008500049010E944303DF91CF9108951F920F92A7
:100860000FB60F9211240F931F932F933F934F9323
:100870005F936F937F938F939F93AF93BF93EF9308
:10088000FF938091560190915701AC01092E000C05
:10089000660B770B9A011127002740918400509135
:1008A000850060E070E0402B512B622B732B40934E
:1008B00058015093590160935A0170935B01B09BAA
:1008C0001AC00196092E000CAA0BBB0BBC015527C0
:1008D00044278091840090918500A0E0B0E0842BB3
:1008E000952BA62BB72B8093580190935901A09379
:1008F0005A01B0935B01E091F801F091F901309752
:1009000039F060E070E0809160019091610109959B
:100910000E94FA03FF91EF91BF91AF919F918F9148
:100920007F916F915F914F913F912F911F910F9107
:100930000F900FBE0F901F9018951F920F920FB639
:100940000F9211240F931F932F933F934F935F9315
:100950006F937F938F939F93AF93BF93EF93FF9387
:100960008091560190915701AC01092E000C660B45
:10097000770B9A0111270027409184005091850040
:1009800060E070E0402B512B622B732B4093580199
:100990005093590160935A0170935B01B09B1AC048
:1009A0000196092E000CAA0BBB0BBC01552744274E
:1009B0008091840090918500A0E0B0E0842B952B7D
:1009C000A62BB72B8093580190935901A0935A01FD
:1009D000B0935B01E091FA01F091FB01309739F09F
:1009E00061E070E0809162019091630109950E943D
:1009F000FA03FF91EF91BF91AF919F918F917F91FA
:100A00006F915F914F913F912F911F910F910F9097
:100A10000FBE0F901F9018951F920F920FB60F9256
:100A200011240F931F932F933F934F935F936F93D3
:100A30007F938F939F93AF93BF93EF93FF93809197
:100A4000560190915701AC01092E000C660B770BF3
:100A50009A0111270027409184005091850060E0A1
:100A600070E0402B512B622B732B40935801509315
:100A7000590160935A0170935B01B09B1AC00196B3
:100A8000092E000CAA0BBB0BBC01552744278091F3
:100A9000840090918500A0E0B0E0842B952BA62BDC
:100AA000B72B8093580190935901A0935A01B093AA
:100AB0005B01E091FC01F091FD01309739F062E0BB
:100AC00070E0809164019091650109950E94FA039C
:100AD000FF91EF91BF91AF919F918F917F916F9116
:100AE0005F914F913F912F911F910F910F900FBEEA
:100AF0000F901F9018951F920F920FB60F9211240E
:100B00000F931F932F933F934F935F936F937F9315
:100B10008F939F93AF93BF93EF93FF938091560171
:100B200090915701AC01092E000C660B770B9A01CE
:100B300011270027409184005091850060E070E00B
:100B4000402B512B622B732B40935801509359012A
:100B500060935A0170935B01B09B1AC00196092EF5
:100B6000000CAA0BBB0BBC015527442780918400C5
:100B700090918500A0E0B0E0842B952BA62BB72B9D
:100B80008093580190935901A0935A01B0935B014F
:100B9000E091FE01F091FF01309739F063E070E0E1
:100BA000809166019091670109950E94FA03FF9177
:100BB000EF91BF91AF919F918F917F916F915F91D5
:100BC0004F913F912F911F910F910F900FBE0F905A
:100BD0001F9018951F920F920FB60F9211240F932A
:100BE0001F932F933F934F935F936F937F938F93B5
:100BF0009F93AF93BF93EF93FF9380915601909192
:100C00005701AC01092E000C660B770B9A011127D6
:100C10000027409184005091850060E070E0402BF7
:100C2000512B622B732B40935801509359016093C1
:100C30005A0170935B01B09B1AC00196092E000CFB
:100C4000AA0BBB0BBC0155274427809184009091CF
:100C50008500A0E0B0E0842B952BA62BB72B8093CA
:100C6000580190935901A0935A01B0935B01E09110
:100C70000002F0910102309739F064E070E0809159
:100C800068019091690109950E94FA03FF91EF9123
:100C9000BF91AF919F918F917F916F915F914F9194
:100CA0003F912F911F910F910F900FBE0F901F90AA
:100CB00018951F920F920FB60F9211240F931F9346
:100CC0002F933F934F935F936F937F938F939F9354
:100CD000AF93BF93EF93FF9380915601909157018B
:100CE000AC01092E000C660B770B9A011127002727
:100CF000409184005091850060E070E0402B512BC2
:100D0000622B732B409358015093590160935A0101
:100D100070935B01B09B1AC00196092E000CAA0BC0
:100D2000BB0BBC015527442780918400909185001E
:100D3000A0E0B0E0842B952BA62BB72B8093580115
:100D400090935901A0935A01B0935B01E091020284
:100D5000F0910302309739F065E070E080916A010C
:100D600090916B0109950E94FA03FF91EF91BF9159
:100D7000AF919F918F917F916F915F914F913F9133
:100D80002F911F910F910F900FBE0F901F901895EC
:100D90001F920F920FB60F9211240F931F932F9350
:100DA0003F934F935F936F937F938F939F93AF93F3
:100DB000BF93EF93FF938091560190915701AC013F
:100DC000092E000C660B770B9A0111270027409122
:100DD00084005091850060E070E0402B512B622B25
:100DE000732B409358015093590160935A017093AB
:100DF0005B01B09B1AC00196092E000CAA0BBB0B1D
:100E0000BC01552744278091840090918500A0E083
:100E1000B0E0842B952BA62BB72B80935801909391
:100E20005901A0935A01B0935B01E0910402F09143
:100E30000502309739F066E070E080916C01909186
:100E40006D0109950E94FA03FF91EF91BF91AF9157
:100E50009F918F917F916F915F914F913F912F91D2
:100E60001F910F910F900FBE0F901F9018951F921A
:100E70000F920FB60F9211240F931F932F933F934E
:100E80004F935F936F937F938F939F93AF93BF9392
:100E9000EF93FF938091560190915701AC01092E79
:100EA000000C660B770B9A011127002740918400F4
:100EB0005091850060E070E0402B512B622B732B2A
:100EC000409358015093590160935A0170935B010C
:100ED000B09B1AC00196092E000CAA0BBB0BBC01DB
:100EE000552744278091840090918500A0E0B0E0D0
:100EF000842B952BA62BB72B8093580190935901E7
:100F0000A0935A01B0935B01E0910602F0910702B1
:100F1000309739F067E070E080916E0190916F0139
:100F200009950E94FA03FF91EF91BF91AF919F91B4
:100F30008F917F916F915F914F913F912F911F9171
:100F40000F910F900FBE0F901F9018951F920F9248
:100F50000FB60F9211240F931F932F933F934F932C
:100F60005F936F937F938F939F93AF93BF93EF9311
:100F7000FF938091560190915701AC01092E000C0E
:100F8000660B770B9A01112700274091840050913E
:100F9000850060E070E0402B512B622B732B409357
:100FA00058015093590160935A0170935B01B09BB3
:100FB0001AC00196092E000CAA0BBB0BBC015527C9
:100FC00044278091840090918500A0E0B0E0842BBC
:100FD000952BA62BB72B8093580190935901A09382
:100FE0005A01B0935B01E0910802F0910902309739
:100FF00039F068E070E0809170019091710109957D
:101000000E94FA03FF91EF91BF91AF919F918F9151
:101010007F916F915F914F913F912F911F910F9110
:101020000F900FBE0F901F9018951F920F920FB642
:101030000F9211240F931F932F933F934F935F931E
:101040006F937F938F939F93AF93BF93EF93FF9390
:101050008091560190915701AC01092E000C660B4E
:10106000770B9A0111270027409184005091850049
:1010700060E070E0402B512B622B732B40935801A2
:101080005093590160935A0170935B01B09B1AC051
:101090000196092E000CAA0BBB0BBC015527442757
:1010A0008091840090918500A0E0B0E0842B952B86
:1010B000A62BB72B8093580190935901A0935A0106
:1010C000B0935B01E0910A02F0910B02309739F086
:1010D00069E070E0809172019091730109950E941E
:1010E000FA03FF91EF91BF91AF919F918F917F9103
:1010F0006F915F914F913F912F911F910F910F90A1
:101100000FBE0F901F9018951F920F920FB60F925F
:1011100011240F931F932F933F934F935F936F93DC
:101120007F938F939F93AF93BF93EF93FF938091A0
:10113000560190915701AC01092E000C660B770BFC
:101140009A0111270027409184005091850060E0AA
:1011500070E0402B512B622B732B4093580150931E
:10116000590160935A0170935B01B09B1AC00196BC
:10117000092E000CAA0BBB0BBC01552744278091FC
:10118000840090918500A0E0B0E0842B952BA62BE5
:10119000B72B8093580190935901A0935A01B093B3
:1011A0005B01E0910C02F0910D02309739F06AE09A
:1011B00070E0809174019091750109950E94FA0385
:1011C000FF91EF91BF91AF919F918F917F916F911F
:1011D0005F914F913F912F911F910F910F900FBEF3
:1011E0000F901F9018951F920F920FB60F92112417
:1011F0000F931F932F933F934F935F936F937F931F
:101200008F939F93AF93BF93EF93FF93809156017A
:1012100090915701AC01092E000C660B770B9A01D7
:1012200011270027409184005091850060E070E014
:10123000402B512B622B732B409358015093590133
:1012400060935A0170935B01B09B1AC00196092EFE
:10125000000CAA0BBB0BBC015527442780918400CE
:1012600090918500A0E0B0E0842B952BA62BB72BA6
:101270008093580190935901A0935A01B0935B0158
:10128000E0910E02F0910F02309739F06BE070E0C0
:10129000809176019091770109950E94FA03FF9160
:1012A000EF91BF91AF919F918F917F916F915F91DE
:1012B0004F913F912F911F910F910F900FBE0F9063
:1012C0001F9018951F920F920FB60F9211240F9333
:1012D0001F932F933F934F935F936F937F938F93BE
:1012E0009F93AF93BF93EF93FF938091560190919B
:1012F0005701AC01092E000C660B770B9A011127E0
:101300000027409184005091850060E070E0402B00
:10131000512B622B732B40935801509359016093CA
:101320005A0170935B01B09B1AC00196092E000C04
:10133000AA0BBB0BBC0155274427809184009091D8
:101340008500A0E0B0E0842B952BA62BB72B8093D3
:10135000580190935901A0935A01B0935B01E09119
:101360001002F0911102309739F06CE070E080913A
:1013700078019091790109950E94FA03FF91EF910C
:10138000BF91AF919F918F917F916F915F914F919D
:101390003F912F911F910F910F900FBE0F901F90B3
:1013A00018951F920F920FB60F9211240F931F934F
:1013B0002F933F934F935F936F937F938F939F935D
:1013C000AF93BF93EF93FF93809156019091570194
:1013D000AC01092E000C660B770B9A011127002730
:1013E000409184005091850060E070E0402B512BCB
:1013F000622B732B409358015093590160935A010B
:1014000070935B01B09B1AC00196092E000CAA0BC9
:10141000BB0BBC0155274427809184009091850027
:10142000A0E0B0E0842B952BA62BB72B809358011E
:1014300090935901A0935A01B0935B01E09112027D
:10144000F0911302309739F06DE070E080917A01ED
:1014500090917B0109950E94FA03FF91EF91BF9152
:10146000AF919F918F917F916F915F914F913F913C
:101470002F911F910F910F900FBE0F901F901895F5
:101480001F920F920FB60F9211240F931F932F9359
:101490003F934F935F936F937F938F939F93AF93FC
:1014A000BF93EF93FF938091560190915701AC0148
:1014B000092E000C660B770B9A011127002740912B
:1014C00084005091850060E070E0402B512B622B2E
:1014D000732B409358015093590160935A017093B4
:1014E0005B01B09B1AC00196092E000CAA0BBB0B26
:1014F000BC01552744278091840090918500A0E08D
:10150000B0E0842B952BA62BB72B8093580190939A
:101510005901A0935A01B0935B01E0911402F0913C
:101520001502309739F06EE070E080917C01909167
:101530007D0109950E94FA03FF91EF91BF91AF9150
:101540009F918F917F916F915F914F913F912F91DB
:101550001F910F910F900FBE0F901F9018951F9223
:101560000F920FB60F9211240F931F932F933F9357
:101570004F935F936F937F938F939F93AF93BF939B
:10158000EF93FF938091560190915701AC01092E82
:10159000000C660B770B9A011127002740918400FD
:1015A0005091850060E070E0402B512B622B732B33
:1015B000409358015093590160935A0170935B0115
:1015C000B09B1AC00196092E000CAA0BBB0BBC01E4
:1015D000552744278091840090918500A0E0B0E0D9
:1015E000842B952BA62BB72B8093580190935901F0
:1015F000A0935A01B0935B01E0911602F09117029B
:10160000309739F06FE070E080917E0190917F011A
:1016100009950E94FA03FF91EF91BF91AF919F91BD
:101620008F917F916F915F914F913F912F911F917A
:101630000F910F900FBE0F901F9018951F920F9251
:101640000FB60F9211240F931F932F933F934F9335
:101650005F936F937F938F939F93AF93BF93EF931A
:10166000FF938091560190915701AC01092E000C17
:10167000660B770B9A011127002740918400509147
:10168000850060E070E0402B512B622B732B409360
:1016900058015093590160935A0170935B01B09BBC
:1016A0001AC00196092E000CAA0BBB0BBC015527D2
:1016B00044278091840090918500A0E0B0E0842BC5
:1016C000952BA62BB72B8093580190935901A0938B
:1016D0005A01B0935B01E0911802F0911902309722
:1016E00039F060E170E0809180019091810109956D
:1016F0000E94FA03FF91EF91BF91AF919F918F915B
:101700007F916F915F914F913F912F911F910F9119
:101710000F900FBE0F901F9018951F920F920FB64B
:101720000F9211240F931F932F933F934F935F9327
:101730006F937F938F939F93AF93BF93EF93FF9399
:101740008091560190915701AC01092E000C660B57
:10175000770B9A0111270027409184005091850052
:1017600060E070E0402B512B622B732B40935801AB
:101770005093590160935A0170935B01B09B1AC05A
:101780000196092E000CAA0BBB0BBC015527442760
:101790008091840090918500A0E0B0E0842B952B8F
:1017A000A62BB72B8093580190935901A0935A010F
:1017B000B0935B01E0911A02F0911B02309739F06F
:1017C00061E170E0809182019091830109950E940E
:1017D000FA03FF91EF91BF91AF919F918F917F910C
:1017E0006F915F914F913F912F911F910F910F90AA
:1017F0000FBE0F901F9018950E94FA03789481E015
:1018000083BF8895FCCF1F920F920FB60F921124C1
:101810002F933F934F935F936F937F938F939F93F8
:10182000EF93FF9380915601909157010196909309
:10183000570180935601E0915C01F0915D01309772
:1018400001F1428153816481758186179707C9F43C
:10185000CA012091840030918500421B530B413016
:10186000510529F480918400909185000196909310
:10187000890080938800EFE6F0E0808182608083B9
:1018800005C0EFE6F0E080818D7F8083FF91EF91CE
:101890009F918F917F916F915F914F913F912F9188
:1018A0000F900FBE0F901F9018951F920F920FB6BA
:1018B0000F921124CF92DF92EF92FF922F933F93DA
:1018C0004F935F936F937F938F939F93AF93BF9348
:1018D000EF93FF9380915601909157016C01092E6F
:1018E000000CEE08FF087601DD24CC244091840032
:1018F0005091850060E070E0C42AD52AE62AF72AD4
:10190000B09B1EC06C012FEFC21AD20A0D2C000C26
:10191000EE08FF08D60199278827C0908400D09050
:101920008500E12CF12CC82AD92AEA2AFB2A08C012
:101930008CE591E00E94C5036EE571E00E946303AF
:10194000E0915C01F0915D01309769F082819381B3
:10195000A481B5818C199D09AE09BF091816190615
:101960001A061B062CF7309721F182819381A481FE
:10197000B58120915601309157012A173B07C9F4D0
:101980009C014091840050918500841B950B019728
:1019900031F420918400309185002F5F3F4F3093C8
:1019A000890020938800EFE6F0E0808182608083E8
:1019B00005C0EFE6F0E080818D7F80830E94FA030E
:1019C000FF91EF91BF91AF919F918F917F916F9117
:1019D0005F914F913F912F91FF90EF90DF90CF90CB
:1019E0000F900FBE0F901F9018953F924F925F92ED
:1019F0006F927F928F929F92AF92BF92CF92DF921F
:101A0000EF92FF920F931F93CF93DF932B013C0133
:101A100049015A018FB78078382EF8948CE491E010
:101A20000E94C503EC011B870A87FD86EC86DF86D2
:101A3000CE86332061F0E0914601F09147010280AB
:101A4000F381E02D82819381A481B58108C08091CA
:101A5000580190915901A0915A01B0915B01480E33
:101A6000591E6A1E7B1E4A825B826C827D8218141C
:101A700019041A041B0444F00F2E88248A94982C0D
:101A8000A82CFFE7BF2EF02D840C951CA61CB71CBC
:101A90008E829F82A886B986209156013091570187
:101AA000C901032E000CAA0BBB0BDC019927882768
:101AB000409184005091850060E070E0842B952B6C
:101AC000A62BB72BB09B13C0C9010196092E000CA1
:101AD000AA0BBB0BDC019927882740918400509109
:101AE000850060E070E0842B952BA62BB72B481A5D
:101AF000590A6A0A7B0A1414150416041704ACF573
:101B00006CE571E0CE010E949403E0915C01F091DC
:101B10005D01309721F182819381A481B58120916B
:101B20005601309157012A173B07C9F49C01409197
:101B3000840050918500841B950B019731F420910E
:101B40008400309185002F5F3F4F309389002093B0
:101B50008800EFE6F0E080818260808339C0EFE6A4
:101B6000F0E080818D7F808333C06EE571E0CE012F
:101B70000E946303332061F180914A0190914B01EF
:101B8000892B31F1E0915E01F0915F0186819781AF
:101B9000A085B185E0914801F09149010280F3816F
:101BA000E02D4681578160857185841B950BA60BBE
:101BB000B70B72F48AE491E00E94F00368E471E0EC
:101BC0000E94E60380914801909149010E944303DD
:101BD000332009F07894CE01DF91CF911F910F91BE
:101BE000FF90EF90DF90CF90BF90AF909F908F903D
:101BF0007F906F905F904F903F900895CF92DF92CB
:101C0000EF92FF920F931F93CF93DF93EC017B0131
:101C10006A011FB71078F894A881B981109719F458
:101C200035C0A081B1811496ED91FC911597309744
:101C3000C1F72091460130914701A217B30711F077
:101C4000111107C0112309F44AC078948FEF9FEF58
:101C50004EC08A819B81009719F0FC011582148285
:101C60003B832A83F901D583C483CD010E944303BA
:101C7000E0914601F091470182819381892B31F4F3
:101C8000112381F1789480E090E031C08091460189
:101C90009091470199838883112329F08A819B8140
:101CA000019709F07894B601CE01F7010995F82E55
:101CB000092F8FB7F894198218828A819B8182300C
:101CC000910538F01B821A82FC01158214820E9451
:101CD0004303112351F078948F2D902F08C08FEF7C
:101CE0009FEF05C080E090E002C08F2D902FDF9124
:101CF000CF911F910F91FF90EF90DF90CF900895BB
:101D000000914601109147018EE591E00E94C503C4
:101D1000EC01F8019383828378946C857D854E85F0
:101D20005F858A859B850E94FE0D8FB7F8946CE4D1
:101D300071E0CE010E94DC03E0914801F09149017D
:101D40000190F081E02DC281D381E0915E01F0919C
:101D50005F013097A1F0209799F286819781A08545
:101D6000B1854E815F8168857985841B950BA60BB3
:101D7000B70B181619061A061B060CF0C1CF88E41B
:101D800091E00E94F0036AE471E00E94E603A091F2
:101D90004801B091490102C0A081B1811496ED9132
:101DA000FC9115973097C1F7CD010E944303A8CF4E
:101DB000FC014231B8F49FB79078F89450E0440F9A
:101DC000551FDA01A05ABE4FED93FC93DA01A850DB
:101DD000BE4F6D937C9321E030E0338322839923BF
:101DE00009F0789408958C017B016A018FB7F8940B
:101DF0000E94A4027894E114F10441F020E030E064
:101E0000A90160E070E0CB010E94F50C8FB7F89457
:101E10000E94FC0B6430710519F48EB180618EB99B
:101E20006630710519F48EB180648EB908956430FE
:101E3000710519F48EB1807E8EB96630710519F482
:101E40008EB1807B8EB90895052E97FB1EF4009409
:101E50000E943B0F57FD07D00E944E0F07FC03D096
:101E60004EF40C943B0F50954095309521953F4F83
:101E70004F4F5F4F089590958095709561957F4F76
:101E80008F4F9F4F08950E94700FA59F900DB49F94
:101E9000900DA49F800D911D11240895A1E21A2E8A
:101EA000AA1BBB1BFD010DC0AA1FBB1FEE1FFF1FFE
:101EB000A217B307E407F50720F0A21BB30BE40B4E
:101EC000F50B661F771F881F991F1A9469F7609595
:101ED0007095809590959B01AC01BD01CF0108954F
:101EE000A29FB001B39FC001A39F700D811D11245B
:101EF000911DB29F700D811D1124911D0895DC016B
:101F00002D923D924D925D926D927D928D929D9219
:101F1000AD92BD92CD92DD92ED92FD920D931D9307
:101F2000CD93DD93FF91EF918DB78D938EB78D9308
:101F30008FB78D93ED93FD93882799270994DC0142
:101F4000CB0181309105811D2D903D904D905D908C
:101F50006D907D908D909D90AD90BD90CD90DD90D9
:101F6000ED90FD900D911D91CD91DD91ED91FD9143
:101F70000D90F894FEBF0FBEEDBFED91FD91099459
:041F8000F894FFCF03
:101F840051151801111E111B500B411B411F094013
:101F9400511F511B000000001A01000000005201F3
:101FA4003601260136010000000004000000000094
:101FB400060000004E0100000000000000000000C8
:0E1FC400040000004E011C021C0284013902C0
:00000001FF
