:100000000C942E000C94AE040C941D050C948C05DD
:100010000C94FB050C946A060C944B000C94D50CC4
:100020000C944B000C94830C0C94D9060C94480748
:100030000C94B7070C9426080C9495080C940409AA
:100040000C9473090C94E2090C94510A0C94C00AA4
:100050000C942F0B0C949E0B0C940D0C11241FBEB2
:10006000CFEFD4E0DEBFCDBF11E0A0E0B1E0EEEC19
:10007000F0E202C005900D92AA34B107D9F724E04E
:10008000AAE4B1E001C01D92A53AB207E1F70E94CF
:10009000B7010C9465100C94000046305105B8F57A
:1000A0006A3048F4E62FF0E0EE0FFF1FE050FF4FFC
:1000B0006081718102C060E070E040FF03C0AFE08A
:1000C000B4E002C0A0EFB0E055954795FA01E451C5
:1000D000FF4F20E030E018C0862F8F7090E00B2E8D
:1000E00002C0880F991F0A94E2F790819A23892B06
:1000F00080837595679575956795759567957595E1
:10010000679535962F5F3F4F243031052CF30895C6
:10011000CF92DF92EF92FF920F931F93CF93DF93D3
:100120008C01FB01C081D181C280D380C60164E60D
:1001300070E00E94A10F0F2EFAE0EF2EF12CF02DAF
:10014000B7010E94A10FAE01C8010E944D00219687
:10015000C601B7010E94A10FAE01682FC8010E941D
:100160004D00DF91CF911F910F91FF90EF90DF90A5
:10017000CF9008950F931F93CF93DF93CDB7DEB742
:1001800028970FB6F894DEBF0FBECDBF8C01E4EE0A
:10019000F0E080818068808387EB8093E500E7EE64
:1001A000F0E080818F60808387E08093E60085B1F6
:1001B000806D85B98EB18C608EB98FE284B980E58F
:1001C0008DB980EC8DBB9CE090936B0090ED90938B
:1001D0006C008093800088E180938100E1E6F0E08C
:1001E00080E8808310821A8219821C821B8284E03C
:1001F00090E09E838D8318861F82BE016F5F7F4FC4
:10020000C8010E948800BE016B5F7F4FC8010E9439
:100210008800ECEEF0E080818064808328960FB641
:10022000F894DEBF0FBECDBFDF91CF911F910F912C
:100230000895CF92DF92EF92FF920F931F93CF9387
:10024000DF93EC010C811D81C12CD12C0F2EF2ED1E
:10025000EF2EF1E0FF2EF02D20E030E0A90160E06C
:1002600070E0CB010E94750D0E811F8120E030E00F
:10027000A90160E070E0CB010E94750DDF91CF9184
:100280001F910F91FF90EF90DF90CF900895CF9244
:10029000DF92EF92FF920F931F93CF93DF93EC01C6
:1002A0001F9912C008851985C12CD12C0F2EF9E990
:1002B000EF2EF2E0FF2EF02D20E030E0A90160E00B
:1002C00070E0CB010E94750D1E9912C0088519853A
:1002D000C12CD12C0F2EFBE4EF2EF2E0FF2EF02DDF
:1002E00020E030E0A90160E070E0CB010E94750DD4
:1002F0001C9912C008851985C12CD12C0F2EF5EE42
:10030000EF2EF2E0FF2EF02D20E030E0A90160E0BA
:1003100070E0CB010E94750DDF91CF911F910F917D
:10032000FF90EF90DF90CF900895FC0162990EC08E
:100330008481958191878087ADEEB0E08C918F7933
:100340008C93ACEEB0E08C9180648C9363990EC07A
:100350008681978191878087ECEEF0E080818F79AC
:100360008083EDEEF0E080818062808308958EE4EA
:1003700091E00E94BA0042E067E471E084E191E01C
:100380000E94580F41E065E971E084E191E00E942C
:10039000580F40E050E069E171E084E191E00E9493
:1003A000730FFFCFCF92DF92EF92FF920F931F93C5
:1003B000CF93DF93EC018E819F8118161906ECF024
:1003C000C12CD12C0F2EF2EDEF2EF1E0FF2EF02DEF
:1003D0008E0120E030E0A90162E17AE780E090E060
:1003E0000E94750D4A855B8565E97FE08E859F8556
:1003F0000E947E0E1D861C8645C08C859D85892B9E
:1004000049F04A855B856AE87FE08E859F850E947A
:100410007E0E08C04A855B8565E97FE08E859F85F5
:100420000E947E0E2E813F81032E000C440B550B43
:1004300060E271EA87E090E00E94B50FADE7B0E0BE
:100440000E94D40F20EA3FE040E050E00E94B50F48
:10045000CA01B901C12CD12C0F2EF2EDEF2EF1E023
:10046000FF2EF02D8E0120E030E0A9010E94750DD5
:100470002C853D8581E090E0232B11F080E090E019
:100480009D878C87DF91CF911F910F91FF90EF9007
:10049000DF90CF900895CF92DF92EF92FF920F936B
:1004A0001F93CF93DF9300D000D0CDB7DEB78C0180
:1004B000FC01868197818336910524F40196978308
:1004C000868305C083E690E0F80197838683F80170
:1004D000848195819A838983868197819C838B838C
:1004E000AE014F5F5F4F68E870E0808991890E949C
:1004F0007E0E1E9911C0C12CD12C0F2EFBE4EF2EC5
:10050000F2E0FF2EF02D20E030E0A90165E37CE071
:1005100080E090E00E94750D0F900F900F900F906B
:10052000DF91CF911F910F91FF90EF90DF90CF90CF
:100530000895CF92DF92EF92FF920F931F93CF9384
:10054000DF9300D000D0CDB7DEB78C01FC018681EF
:1005500097811816190624F401979783868303C0A0
:10056000F80117821682F801848195819A83898324
:10057000868197819C838B83AE014F5F5F4F68E8D4
:1005800070E0808991890E947E0E1F9911C0C12C54
:10059000D12C0F2EF9E9EF2EF2E0FF2EF02D20E006
:1005A00030E0A90165E37CE080E090E00E94750DF9
:1005B0000F900F900F900F90DF91CF911F910F919F
:1005C000FF90EF90DF90CF9008950F931F93CF93FC
:1005D000DF9300D000D0CDB7DEB78C01FC0186815F
:1005E00097811816190684F49187808717821682DE
:1005F0004285538565E97FE0868597850E947E0E5A
:10060000F8011586148605C0F801808591859783C9
:100610008683F801848195819A8389838681978175
:100620009C838B83AE014F5F5F4F68E870E08089E9
:1006300091890E947E0E0F900F900F900F90DF9186
:10064000CF911F910F910895CF93DF9300D000D0E9
:10065000CDB7DEB780E090E018C0AC014F5F5F4FD0
:100660009A0122953295307F3227207F32272B5CEA
:100670003D4F82959295907F9827807F9827FC0127
:10068000EB5CFD4F31832083CA018E3091052CF342
:10069000109216031092150380E090E015C0AC0193
:1006A0004F5F5F4F6DE1649F9001659F300D112496
:1006B00020583E4F689FF001699FF00D1124E058CB
:1006C000FE4F31832083CA018330910544F3109299
:1006D000D8011092D7011A82198232C02DE14981C6
:1006E0005A81249FC001259F900D1124FC01EA57D7
:1006F000FE4FFC83EB83CF010E94241020E649814A
:100700005A81249FC001259F900D11248F579C4F23
:10071000EB81FC81918B808B938B828B80E09FE0BF
:10072000968B858B8DE1849FF001859FF00D1124C0
:10073000E058FE4F158214824F5F5F4F5A83498302
:1007400029813A81243031054CF2E8E1F2E011824E
:1007500010821582148213821282E1E6F0E080E8B2
:1007600080831082109285001092840084E0809330
:10077000810081E080936F000F900F900F900F9099
:10078000DF91CF910895CF93DF9300D0CDB7DEB73F
:100790009A838983809142019091430106960E9439
:1007A0002410892B59F489819A8190934301809375
:1007B000420161E070E006960E9444100F900F9095
:1007C000DF91CF9108950F931F93CF93DF93DC01B7
:1007D000CB01EB01E881F981C0E0D0E004C0EF017A
:1007E0000190F081E02D309779F006811781208506
:1007F000318516964D915D916D917C9119974017B9
:100800005107620773075CF71196FC93EE932097EC
:1008100021F4FC01B183A08302C0B983A883DF91D6
:10082000CF911F910F9108950F931F93CF93DF9353
:10083000DC01CB01EB01E881F981C0E0D0E004C02C
:10084000EF010190F081E02D309779F00281138162
:100850002481358112964D915D916D917C91159712
:1008600040175107620773075CF71196FC93EE93EC
:10087000209721F4FC01B183A08302C0B983A8832F
:10088000DF91CF911F910F910895DC01ED91FC91C3
:100890001197309759F48FEF8093EC008093ED001F
:1008A0008093EE0081E083BF8895FCCF2081318169
:1008B0002D933C93CF010895FB0120813181FC01F0
:1008C00031832083FB01918380830895FB01208184
:1008D0003181FC0131832083FB0191838083089562
:1008E000DC01ED91FC911197208131812D933C9396
:1008F000CF010895CF93DF93E0914401F09145013A
:10090000C281D381E0915A01F0915B01309719F1D6
:100910008091460190914701892BE9F0209769F079
:1009200086819781A085B1854E815F8168857985B3
:10093000841B950BA60BB70B72F486E491E00E9422
:10094000700464E471E00E94660480914401909117
:1009500045010E94C303DF91CF9108951F920F922A
:100960000FB60F9211240F931F932F933F934F9322
:100970005F936F937F938F939F93AF93BF93EF9307
:10098000FF938091520190915301AC01092E000C0C
:10099000660B770B9A011127002740918400509134
:1009A000850060E070E0402B512B622B732B40934D
:1009B0005401509355016093560170935701B09BB9
:1009C0001AC00196092E000CAA0BBB0BBC015527BF
:1009D00044278091840090918500A0E0B0E0842BB2
:1009E000952BA62BB72B8093540190935501A09380
:1009F0005601B0935701E091F401F091F501309761
:100A000039F060E070E080915C0190915D010995A2
:100A10000E947A04FF91EF91BF91AF919F918F91C6
:100A20007F916F915F914F913F912F911F910F9106
:100A30000F900FBE0F901F9018951F920F920FB638
:100A40000F9211240F931F932F933F934F935F9314
:100A50006F937F938F939F93AF93BF93EF93FF9386
:100A60008091520190915301AC01092E000C660B4C
:100A7000770B9A011127002740918400509185003F
:100A800060E070E0402B512B622B732B409354019C
:100A9000509355016093560170935701B09B1AC053
:100AA0000196092E000CAA0BBB0BBC01552744274D
:100AB0008091840090918500A0E0B0E0842B952B7C
:100AC000A62BB72B8093540190935501A093560108
:100AD000B0935701E091F601F091F701309739F0AA
:100AE00061E070E080915E0190915F0109950E9444
:100AF0007A04FF91EF91BF91AF919F918F917F9178
:100B00006F915F914F913F912F911F910F910F9096
:100B10000FBE0F901F9018951F920F920FB60F9255
:100B200011240F931F932F933F934F935F936F93D2
:100B30007F938F939F93AF93BF93EF93FF93809196
:100B4000520190915301AC01092E000C660B770BFA
:100B50009A0111270027409184005091850060E0A0
:100B600070E0402B512B622B732B40935401509318
:100B700055016093560170935701B09B1AC00196BE
:100B8000092E000CAA0BBB0BBC01552744278091F2
:100B9000840090918500A0E0B0E0842B952BA62BDB
:100BA000B72B8093540190935501A0935601B093B5
:100BB0005701E091F801F091F901309739F062E0C6
:100BC00070E0809160019091610109950E947A0422
:100BD000FF91EF91BF91AF919F918F917F916F9115
:100BE0005F914F913F912F911F910F910F900FBEE9
:100BF0000F901F9018951F920F920FB60F9211240D
:100C00000F931F932F933F934F935F936F937F9314
:100C10008F939F93AF93BF93EF93FF938091520174
:100C200090915301AC01092E000C660B770B9A01D1
:100C300011270027409184005091850060E070E00A
:100C4000402B512B622B732B409354015093550131
:100C50006093560170935701B09B1AC00196092EFC
:100C6000000CAA0BBB0BBC015527442780918400C4
:100C700090918500A0E0B0E0842B952BA62BB72B9C
:100C80008093540190935501A0935601B09357015E
:100C9000E091FA01F091FB01309739F063E070E0E8
:100CA000809162019091630109950E947A04FF91FD
:100CB000EF91BF91AF919F918F917F916F915F91D4
:100CC0004F913F912F911F910F910F900FBE0F9059
:100CD0001F9018951F920F920FB60F9211240F9329
:100CE0001F932F933F934F935F936F937F938F93B4
:100CF0009F93AF93BF93EF93FF9380915201909195
:100D00005301AC01092E000C660B770B9A011127D9
:100D10000027409184005091850060E070E0402BF6
:100D2000512B622B732B40935401509355016093C8
:100D3000560170935701B09B1AC00196092E000C02
:100D4000AA0BBB0BBC0155274427809184009091CE
:100D50008500A0E0B0E0842B952BA62BB72B8093C9
:100D6000540190935501A0935601B0935701E0911F
:100D7000FC01F091FD01309739F064E070E0809162
:100D800064019091650109950E947A04FF91EF91A9
:100D9000BF91AF919F918F917F916F915F914F9193
:100DA0003F912F911F910F910F900FBE0F901F90A9
:100DB00018951F920F920FB60F9211240F931F9345
:100DC0002F933F934F935F936F937F938F939F9353
:100DD000AF93BF93EF93FF93809152019091530192
:100DE000AC01092E000C660B770B9A011127002726
:100DF000409184005091850060E070E0402B512BC1
:100E0000622B732B4093540150935501609356010C
:100E100070935701B09B1AC00196092E000CAA0BC3
:100E2000BB0BBC015527442780918400909185001D
:100E3000A0E0B0E0842B952BA62BB72B8093540118
:100E400090935501A0935601B0935701E091FE0194
:100E5000F091FF01309739F065E070E08091660114
:100E60009091670109950E947A04FF91EF91BF91DB
:100E7000AF919F918F917F916F915F914F913F9132
:100E80002F911F910F910F900FBE0F901F901895EB
:100E90001F920F920FB60F9211240F931F932F934F
:100EA0003F934F935F936F937F938F939F93AF93F2
:100EB000BF93EF93FF938091520190915301AC0146
:100EC000092E000C660B770B9A0111270027409121
:100ED00084005091850060E070E0402B512B622B24
:100EE000732B4093540150935501609356017093B6
:100EF0005701B09B1AC00196092E000CAA0BBB0B20
:100F0000BC01552744278091840090918500A0E082
:100F1000B0E0842B952BA62BB72B80935401909394
:100F20005501A0935601B0935701E0910002F09152
:100F30000102309739F066E070E08091680190918D
:100F4000690109950E947A04FF91EF91BF91AF91D9
:100F50009F918F917F916F915F914F913F912F91D1
:100F60001F910F910F900FBE0F901F9018951F9219
:100F70000F920FB60F9211240F931F932F933F934D
:100F80004F935F936F937F938F939F93AF93BF9391
:100F9000EF93FF938091520190915301AC01092E80
:100FA000000C660B770B9A011127002740918400F3
:100FB0005091850060E070E0402B512B622B732B29
:100FC000409354015093550160935601709357011B
:100FD000B09B1AC00196092E000CAA0BBB0BBC01DA
:100FE000552744278091840090918500A0E0B0E0CF
:100FF000842B952BA62BB72B8093540190935501EE
:10100000A0935601B0935701E0910202F0910302C0
:10101000309739F067E070E080916A0190916B0140
:1010200009950E947A04FF91EF91BF91AF919F9132
:101030008F917F916F915F914F913F912F911F9170
:101040000F910F900FBE0F901F9018951F920F9247
:101050000FB60F9211240F931F932F933F934F932B
:101060005F936F937F938F939F93AF93BF93EF9310
:10107000FF938091520190915301AC01092E000C15
:10108000660B770B9A01112700274091840050913D
:10109000850060E070E0402B512B622B732B409356
:1010A0005401509355016093560170935701B09BC2
:1010B0001AC00196092E000CAA0BBB0BBC015527C8
:1010C00044278091840090918500A0E0B0E0842BBB
:1010D000952BA62BB72B8093540190935501A09389
:1010E0005601B0935701E0910402F0910502309748
:1010F00039F068E070E080916C0190916D01099584
:101100000E947A04FF91EF91BF91AF919F918F91CF
:101110007F916F915F914F913F912F911F910F910F
:101120000F900FBE0F901F9018951F920F920FB641
:101130000F9211240F931F932F933F934F935F931D
:101140006F937F938F939F93AF93BF93EF93FF938F
:101150008091520190915301AC01092E000C660B55
:10116000770B9A0111270027409184005091850048
:1011700060E070E0402B512B622B732B40935401A5
:10118000509355016093560170935701B09B1AC05C
:101190000196092E000CAA0BBB0BBC015527442756
:1011A0008091840090918500A0E0B0E0842B952B85
:1011B000A62BB72B8093540190935501A093560111
:1011C000B0935701E0910602F0910702309739F091
:1011D00069E070E080916E0190916F0109950E9425
:1011E0007A04FF91EF91BF91AF919F918F917F9181
:1011F0006F915F914F913F912F911F910F910F90A0
:101200000FBE0F901F9018951F920F920FB60F925E
:1012100011240F931F932F933F934F935F936F93DB
:101220007F938F939F93AF93BF93EF93FF9380919F
:10123000520190915301AC01092E000C660B770B03
:101240009A0111270027409184005091850060E0A9
:1012500070E0402B512B622B732B40935401509321
:1012600055016093560170935701B09B1AC00196C7
:10127000092E000CAA0BBB0BBC01552744278091FB
:10128000840090918500A0E0B0E0842B952BA62BE4
:10129000B72B8093540190935501A0935601B093BE
:1012A0005701E0910802F0910902309739F06AE0A5
:1012B00070E0809170019091710109950E947A040B
:1012C000FF91EF91BF91AF919F918F917F916F911E
:1012D0005F914F913F912F911F910F910F900FBEF2
:1012E0000F901F9018951F920F920FB60F92112416
:1012F0000F931F932F933F934F935F936F937F931E
:101300008F939F93AF93BF93EF93FF93809152017D
:1013100090915301AC01092E000C660B770B9A01DA
:1013200011270027409184005091850060E070E013
:10133000402B512B622B732B40935401509355013A
:101340006093560170935701B09B1AC00196092E05
:10135000000CAA0BBB0BBC015527442780918400CD
:1013600090918500A0E0B0E0842B952BA62BB72BA5
:101370008093540190935501A0935601B093570167
:10138000E0910A02F0910B02309739F06BE070E0C7
:10139000809172019091730109950E947A04FF91E6
:1013A000EF91BF91AF919F918F917F916F915F91DD
:1013B0004F913F912F911F910F910F900FBE0F9062
:1013C0001F9018951F920F920FB60F9211240F9332
:1013D0001F932F933F934F935F936F937F938F93BD
:1013E0009F93AF93BF93EF93FF938091520190919E
:1013F0005301AC01092E000C660B770B9A011127E3
:101400000027409184005091850060E070E0402BFF
:10141000512B622B732B40935401509355016093D1
:10142000560170935701B09B1AC00196092E000C0B
:10143000AA0BBB0BBC0155274427809184009091D7
:101440008500A0E0B0E0842B952BA62BB72B8093D2
:10145000540190935501A0935601B0935701E09128
:101460000C02F0910D02309739F06CE070E0809141
:1014700074019091750109950E947A04FF91EF9192
:10148000BF91AF919F918F917F916F915F914F919C
:101490003F912F911F910F910F900FBE0F901F90B2
:1014A00018951F920F920FB60F9211240F931F934E
:1014B0002F933F934F935F936F937F938F939F935C
:1014C000AF93BF93EF93FF9380915201909153019B
:1014D000AC01092E000C660B770B9A01112700272F
:1014E000409184005091850060E070E0402B512BCA
:1014F000622B732B40935401509355016093560116
:1015000070935701B09B1AC00196092E000CAA0BCC
:10151000BB0BBC0155274427809184009091850026
:10152000A0E0B0E0842B952BA62BB72B8093540121
:1015300090935501A0935601B0935701E0910E028C
:10154000F0910F02309739F06DE070E080917601F4
:101550009091770109950E947A04FF91EF91BF91D4
:10156000AF919F918F917F916F915F914F913F913B
:101570002F911F910F910F900FBE0F901F901895F4
:101580001F920F920FB60F9211240F931F932F9358
:101590003F934F935F936F937F938F939F93AF93FB
:1015A000BF93EF93FF938091520190915301AC014F
:1015B000092E000C660B770B9A011127002740912A
:1015C00084005091850060E070E0402B512B622B2D
:1015D000732B4093540150935501609356017093BF
:1015E0005701B09B1AC00196092E000CAA0BBB0B29
:1015F000BC01552744278091840090918500A0E08C
:10160000B0E0842B952BA62BB72B8093540190939D
:101610005501A0935601B0935701E0911002F0914B
:101620001102309739F06EE070E08091780190916E
:10163000790109950E947A04FF91EF91BF91AF91D2
:101640009F918F917F916F915F914F913F912F91DA
:101650001F910F910F900FBE0F901F9018951F9222
:101660000F920FB60F9211240F931F932F933F9356
:101670004F935F936F937F938F939F93AF93BF939A
:10168000EF93FF938091520190915301AC01092E89
:10169000000C660B770B9A011127002740918400FC
:1016A0005091850060E070E0402B512B622B732B32
:1016B0004093540150935501609356017093570124
:1016C000B09B1AC00196092E000CAA0BBB0BBC01E3
:1016D000552744278091840090918500A0E0B0E0D8
:1016E000842B952BA62BB72B8093540190935501F7
:1016F000A0935601B0935701E0911202F0911302AA
:10170000309739F06FE070E080917A0190917B0121
:1017100009950E947A04FF91EF91BF91AF919F913B
:101720008F917F916F915F914F913F912F911F9179
:101730000F910F900FBE0F901F9018951F920F9250
:101740000FB60F9211240F931F932F933F934F9334
:101750005F936F937F938F939F93AF93BF93EF9319
:10176000FF938091520190915301AC01092E000C1E
:10177000660B770B9A011127002740918400509146
:10178000850060E070E0402B512B622B732B40935F
:101790005401509355016093560170935701B09BCB
:1017A0001AC00196092E000CAA0BBB0BBC015527D1
:1017B00044278091840090918500A0E0B0E0842BC4
:1017C000952BA62BB72B8093540190935501A09392
:1017D0005601B0935701E0911402F0911502309731
:1017E00039F060E170E080917C0190917D01099574
:1017F0000E947A04FF91EF91BF91AF919F918F91D9
:101800007F916F915F914F913F912F911F910F9118
:101810000F900FBE0F901F9018951F920F920FB64A
:101820000F9211240F931F932F933F934F935F9326
:101830006F937F938F939F93AF93BF93EF93FF9398
:101840008091520190915301AC01092E000C660B5E
:10185000770B9A0111270027409184005091850051
:1018600060E070E0402B512B622B732B40935401AE
:10187000509355016093560170935701B09B1AC065
:101880000196092E000CAA0BBB0BBC01552744275F
:101890008091840090918500A0E0B0E0842B952B8E
:1018A000A62BB72B8093540190935501A09356011A
:1018B000B0935701E0911602F0911702309739F07A
:1018C00061E170E080917E0190917F0109950E9415
:1018D0007A04FF91EF91BF91AF919F918F917F918A
:1018E0006F915F914F913F912F911F910F910F90A9
:1018F0000FBE0F901F9018950E947A04789481E093
:1019000083BF8895FCCF1F920F920FB60F921124C0
:101910002F933F934F935F936F937F938F939F93F7
:10192000EF93FF9380915201909153010196909310
:10193000530180935201E0915801F0915901309781
:1019400001F1428153816481758186179707C9F43B
:10195000CA012091840030918500421B530B413015
:10196000510529F48091840090918500019690930F
:10197000890080938800EFE6F0E0808182608083B8
:1019800005C0EFE6F0E080818D7F8083FF91EF91CD
:101990009F918F917F916F915F914F913F912F9187
:1019A0000F900FBE0F901F9018951F920F920FB6B9
:1019B0000F921124CF92DF92EF92FF922F933F93D9
:1019C0004F935F936F937F938F939F93AF93BF9347
:1019D000EF93FF9380915201909153016C01092E76
:1019E000000CEE08FF087601DD24CC244091840031
:1019F0005091850060E070E0C42AD52AE62AF72AD3
:101A0000B09B1EC06C012FEFC21AD20A0D2C000C25
:101A1000EE08FF08D60199278827C0908400D0904F
:101A20008500E12CF12CC82AD92AEA2AFB2A08C011
:101A300088E591E00E9445046AE571E00E94E303B5
:101A4000E0915801F0915901309769F082819381BA
:101A5000A481B5818C199D09AE09BF091816190614
:101A60001A061B062CF7309721F182819381A481FD
:101A7000B58120915201309153012A173B07C9F4D7
:101A80009C014091840050918500841B950B019727
:101A900031F420918400309185002F5F3F4F3093C7
:101AA000890020938800EFE6F0E0808182608083E7
:101AB00005C0EFE6F0E080818D7F80830E947A048C
:101AC000FF91EF91BF91AF919F918F917F916F9116
:101AD0005F914F913F912F91FF90EF90DF90CF90CA
:101AE0000F900FBE0F901F9018953F924F925F92EC
:101AF0006F927F928F929F92AF92BF92CF92DF921E
:101B0000EF92FF920F931F93CF93DF932B013C0132
:101B100049015A018FB78078382EF89488E491E013
:101B20000E944504EC011B870A87FD86EC86DF8650
:101B3000CE86332061F0E0914201F09143010280B2
:101B4000F381E02D82819381A481B58108C08091C9
:101B5000540190915501A0915601B0915701480E42
:101B6000591E6A1E7B1E4A825B826C827D8218141B
:101B700019041A041B0444F00F2E88248A94982C0C
:101B8000A82CFFE7BF2EF02D840C951CA61CB71CBB
:101B90008E829F82A886B98620915201309153018E
:101BA000C901032E000CAA0BBB0BDC019927882767
:101BB000409184005091850060E070E0842B952B6B
:101BC000A62BB72BB09B13C0C9010196092E000CA0
:101BD000AA0BBB0BDC019927882740918400509108
:101BE000850060E070E0842B952BA62BB72B481A5C
:101BF000590A6A0A7B0A1414150416041704ACF572
:101C000068E571E0CE010E941404E0915801F09162
:101C10005901309721F182819381A481B58120916E
:101C20005201309153012A173B07C9F49C0140919E
:101C3000840050918500841B950B019731F420910D
:101C40008400309185002F5F3F4F309389002093AF
:101C50008800EFE6F0E080818260808339C0EFE6A3
:101C6000F0E080818D7F808333C06AE571E0CE0132
:101C70000E94E303332061F1809146019091470176
:101C8000892B31F1E0915A01F0915B0186819781B6
:101C9000A085B185E0914401F09145010280F38176
:101CA000E02D4681578160857185841B950BA60BBD
:101CB000B70B72F486E491E00E94700464E471E072
:101CC0000E94660480914401909145010E94C303E3
:101CD000332009F07894CE01DF91CF911F910F91BD
:101CE000FF90EF90DF90CF90BF90AF909F908F903C
:101CF0007F906F905F904F903F900895CF92DF92CA
:101D0000EF92FF920F931F93CF93DF93EC017B0130
:101D10006A011FB71078F894A881B981109719F457
:101D200035C0A081B1811496ED91FC911597309743
:101D3000C1F72091420130914301A217B30711F07E
:101D4000111107C0112309F44AC078948FEF9FEF57
:101D50004EC08A819B81009719F0FC011582148284
:101D60003B832A83F901D583C483CD010E94C30339
:101D7000E0914201F091430182819381892B31F4FA
:101D8000112381F1789480E090E031C0809142018C
:101D90009091430199838883112329F08A819B8143
:101DA000019709F07894B601CE01F7010995F82E54
:101DB000092F8FB7F894198218828A819B8182300B
:101DC000910538F01B821A82FC01158214820E9450
:101DD000C303112351F078948F2D902F08C08FEFFB
:101DE0009FEF05C080E090E002C08F2D902FDF9123
:101DF000CF911F910F91FF90EF90DF90CF900895BA
:101E000000914201109143018AE591E00E9445044E
:101E1000EC01F8019383828378946C857D854E85EF
:101E20005F858A859B850E947E0E8FB7F89468E453
:101E300071E0CE010E945C04E0914401F091450103
:101E40000190F081E02DC281D381E0915A01F0919F
:101E50005B013097A1F0209799F286819781A08548
:101E6000B1854E815F8168857985841B950BA60BB2
:101E7000B70B181619061A061B060CF0C1CF84E41E
:101E800091E00E94700466E471E00E946604A091F3
:101E90004401B091450102C0A081B1811496ED9139
:101EA000FC9115973097C1F7CD010E94C303A8CFCD
:101EB000FC014231B8F49FB79078F89450E0440F99
:101EC000551FDA01A45ABE4FED93FC93DA01AC50D2
:101ED000BE4F6D937C9321E030E0338322839923BE
:101EE00009F0789408958C017B016A018FB7F8940A
:101EF0000E9424037894E114F10441F020E030E0E2
:101F0000A90160E070E0CB010E94750D8FB7F894D5
:101F10000E947C0C2EB181E090E002C0880F991FD6
:101F20006A95E2F7822B8EB908952EB181E090E098
:101F300002C0880F991F6A95E2F7809582238EB9B7
:101F4000089597FB072E16F4009407D077FD09D06B
:101F50000E94DF0F07FC05D03EF4909581959F4FBE
:101F60000895709561957F4F0895052E97FB1EF497
:101F700000940E94CC0F57FD07D00E94F30F07FC7E
:101F800003D04EF40C94CC0F50954095309521958C
:101F90003F4F4F4F5F4F0895909580957095619595
:101FA0007F4F8F4F9F4F08950E941510A59F900D52
:101FB000B49F900DA49F800D911D11240895AA1B1C
:101FC000BB1B51E107C0AA1FBB1FA617B70710F024
:101FD000A61BB70B881F991F5A95A9F78095909556
:101FE000BC01CD010895A1E21A2EAA1BBB1BFD0165
:101FF0000DC0AA1FBB1FEE1FFF1FA217B307E407E8
:10200000F50720F0A21BB30BE40BF50B661F771F3F
:10201000881F991F1A9469F760957095809590951F
:102020009B01AC01BD01CF010895A29FB001B39FF8
:10203000C001A39F700D811D1124911DB29F700DD1
:10204000811D1124911D0895DC012D923D924D9228
:102050005D926D927D928D929D92AD92BD92CD9248
:10206000DD92ED92FD920D931D93CD93DD93FF9143
:10207000EF918DB78D938EB78D938FB78D93ED9331
:10208000FD93882799270994DC01CB0181309105C4
:10209000811D2D903D904D905D906D907D908D9027
:1020A0009D90AD90BD90CD90DD90ED90FD900D9107
:1020B0001D91CD91DD91ED91FD910D90F894FEBFB4
:0E20C0000FBEEDBFED91FD910994F894FFCF96
:1020CE0051151801111E111B500B411B411F0940C8
:1020DE00511F511B0000000030011E013001000095
:1020EE000000040000000000060000004A014E013E
:1020FE0000000000000000000000040000004A0183
:0A210E004E0118021802800135028C
:00000001FF
