S00D00004C616262342E7372656372
S11300000C942E000C9462030C94D1030C944004C1
S11300100C94AF040C941E050C944B000C94890BA7
S11300200C944B000C94370B0C948D050C94FC052C
S11300300C946B060C94DA060C9449070C94B807DC
S11300400C9427080C9496080C9405090C947409D4
S11300500C94E3090C94520A0C94C10A11241FBE97
S1130060CFEFD4E0DEBFCDBF11E0A0E0B1E0E6EB1E
S1130070FDE102C005900D92AC33B107D9F724E03D
S1130080ACE3B1E001C01D92A739B207E1F70E94C9
S113009032010C94D90E0C94000046305105B8F589
S11300A06A3048F4E62FF0E0EE0FFF1FE050FF4FF8
S11300B06081718102C060E070E040FF03C0AFE086
S11300C0B4E002C0A0EFB0E055954795FA01E451C1
S11300D0FF4F20E030E018C0862F8F7090E00B2E89
S11300E002C0880F991F0A94E2F790819A23892B02
S11300F080837595679575956795759567957595DD
S1130100679535962F5F3F4F243031052CF30895C2
S11301108F929F92AF92BF92CF92DF92EF92FF9213
S1130120CF93DF93EC014A015B01CB01BA0124E6D2
S113013030E040E050E00E943D0E0F2EFAE0CF2E5A
S1130140D12CE12CF12CF02DA70196010E943D0E3B
S113015040E050E0622FCE010E944D00C501B40181
S1130160A70196010E943D0E41E050E0CE010E949D
S11301704D00DF91CF91FF90EF90DF90CF90BF9033
S1130180AF909F908F9008958F929F92AF92BF925D
S1130190CF92DF92EF92FF92CF93DF93EC014A016B
S11301A05B01CB01BA0124E630E040E050E00E945C
S11301B03D0E0F2EFAE0CF2ED12CE12CF12CF02D98
S11301C0A70196010E943D0E44E050E0622FCE014B
S11301D00E944D00C501B401A70196010E943D0E85
S11301E045E050E0CE010E944D00DF91CF91FF9099
S11301F0EF90DF90CF90BF90AF909F908F90089535
S1130200CF93DF93EC01E4EEF0E08081806880839B
S113021087EB8093E500E7EEF0E080818F608083D8
S113022087E08093E60080E88DBB80936C0090ECBF
S11302309093800098E190938100E1E6F0E0808360
S1130240108240E050E064EC70E0CE010E94320D78
S113025040E050E068E870E0CE010E94320DDF918A
S1130260CF91089580E491E00E94000160E070E085
S113027084E191E00E94CD0160E070E084E291E0CD
S11302800E94CD0160E070E084E291E00E94CD0123
S113029060E070E084E291E00E94CD0160E070E0F3
S11302A084E291E00E94CD0160E070E084E291E09C
S11302B00E94CD0140E050E063E671E084E291E009
S11302C00E940C0EFFCFCF92DF92EF92FF920F931A
S11302D01F93CF93DF93EC016B012C853D8581E067
S11302E090E0232B11F080E090E09D878C872E8195
S11302F03F812115310589F40F2EF3E6EF2EF1E04D
S1130300FF2EF02D8E0120E030E0A90162E17AE7B2
S113031080E090E00E94290C37C0032E000C440BAF
S1130320550B60E472E48FE090E00E943D0EADE76F
S1130330B0E00E945C0E20EA3FE040E050E00E9402
S11303403D0ECA01B9010F2EF3E6EF2EF1E0FF2EA8
S1130350F02D8E0120E030E0A9010E94290C8C854B
S11303609D85892B49F04A855B8563E27EE08E8515
S11303709F850E94320D08C04A855B8560E37EE05C
S11303808E859F850E94320DDF91CF911F910F9131
S1130390FF90EF90DF90CF900895FC012681378184
S11303A02336310524F42F5F3F4F37832683089586
S11303B0CF93DF9300D000D0CDB7DEB780E090E0DC
S11303C018C0AC014F5F5F4F9A0122953295307F80
S11303D03227207F3227295D3D4F82959295907F69
S11303E09827807F9827FC01E95DFD4F31832083A6
S11303F0CA018E3091052CF3109208031092070362
S113040080E090E015C0AC014F5F5F4F6DE1649FE9
S11304109001659F300D11242E583E4F689FF001C6
S1130420699FF00D1124EE58FE4F31832083CA01D9
S11304308330910544F31092CA011092C9011A82C3
S1130440198232C02DE149815A81249FC001259F20
S1130450900D1124FC01E858FE4FFC83EB83CF017F
S11304600E94980E20E649815A81249FC001259F4D
S1130470900D11248D589C4FEB81FC81918B808BC6
S1130480938B828B84EB9DE0968B858B8DE1849F8F
S1130490F001859FF00D1124EE58FE4F1582148251
S11304A04F5F5F4F5A83498329813A812430310554
S11304B04CF2EAE0F2E01182108215821482138277
S11304C01282E1E6F0E080E88083108210928500D9
S11304D01092840084E08093810081E080936F0017
S11304E00F900F900F900F90DF91CF910895CF93BD
S11304F0DF9300D0CDB7DEB79A838983809134012E
S11305009091350106960E94980E892B59F48981A1
S11305109A81909335018093340161E070E00696EE
S11305200E94B80E0F900F90DF91CF9108950F9312
S11305301F93CF93DF93DC01CB01EB01E881F981B9
S1130540C0E0D0E004C0EF010190F081E02D3097CD
S113055079F0068117812085318516964D915D913C
S11305606D917C91199740175107620773075CF7E7
S11305701196FC93EE93209721F4FC01B183A083A0
S113058002C0B983A883DF91CF911F910F91089581
S11305900F931F93CF93DF93DC01CB01EB01E88131
S11305A0F981C0E0D0E004C0EF010190F081E02DBA
S11305B0309779F0028113812481358112964D910F
S11305C05D916D917C9115974017510762077307F0
S11305D05CF71196FC93EE93209721F4FC01B18310
S11305E0A08302C0B983A883DF91CF911F910F919B
S11305F00895DC01ED91FC911197309759F48FEF38
S11306008093EC008093ED008093EE0081E083BF43
S11306108895FCCF208131812D933C93CF0108959F
S1130620FB0120813181FC0131832083FB01918313
S113063080830895FB0120813181FC013183208373
S1130640FB01918380830895DC01ED91FC91119766
S1130650208131812D933C93CF010895CF93DF9373
S1130660E0913601F0913701C281D381E0914C01D0
S1130670F0914D01309719F1809138019091390131
S1130680892BE9F0209769F086819781A085B1854F
S11306904E815F8168857985841B950BA60BB70B0A
S11306A072F488E391E00E94240366E371E00E94FF
S11306B01A0380913601909137010E947702DF91ED
S11306C0CF9108951F920F920FB60F9211240F939A
S11306D01F932F933F934F935F936F937F938F93C6
S11306E09F93AF93BF93EF93FF93809144019091B5
S11306F04501AC01092E000C660B770B9A011127FA
S11307000027409184005091850060E070E0402B08
S1130710512B622B732B40934601509347016093F6
S1130720480170934901B09B1AC00196092E000C30
S1130730AA0BBB0BBC0155274427809184009091E0
S11307408500A0E0B0E0842B952BA62BB72B8093DB
S1130750460190934701A0934801B0934901E09169
S1130760E601F091E701309739F060E070E08091A4
S11307704E0190914F0109950E942E03FF91EF9134
S1130780BF91AF919F918F917F916F915F914F91A5
S11307903F912F911F910F910F900FBE0F901F90BB
S11307A018951F920F920FB60F9211240F931F9357
S11307B02F933F934F935F936F937F938F939F9365
S11307C0AF93BF93EF93FF938091440190914501C0
S11307D0AC01092E000C660B770B9A011127002738
S11307E0409184005091850060E070E0402B512BD3
S11307F0622B732B40934601509347016093480149
S113080070934901B09B1AC00196092E000CAA0BE3
S1130810BB0BBC015527442780918400909185002F
S1130820A0E0B0E0842B952BA62BB72B8093460138
S113083090934701A0934801B0934901E091E801E6
S1130840F091E901309739F061E070E08091500156
S11308509091510109950E942E03FF91EF91BF9150
S1130860AF919F918F917F916F915F914F913F9144
S11308702F911F910F910F900FBE0F901F901895FD
S11308801F920F920FB60F9211240F931F932F9361
S11308903F934F935F936F937F938F939F93AF9304
S11308A0BF93EF93FF938091440190914501AC0174
S11308B0092E000C660B770B9A0111270027409133
S11308C084005091850060E070E0402B512B622B36
S11308D0732B4093460150934701609348017093F2
S11308E04901B09B1AC00196092E000CAA0BBB0B40
S11308F0BC01552744278091840090918500A0E095
S1130900B0E0842B952BA62BB72B809346019093B4
S11309104701A0934801B0934901E091EA01F091A5
S1130920EB01309739F062E070E0809152019091D0
S1130930530109950E942E03FF91EF91BF91AF914E
S11309409F918F917F916F915F914F913F912F91E3
S11309501F910F910F900FBE0F901F9018951F922B
S11309600F920FB60F9211240F931F932F933F935F
S11309704F935F936F937F938F939F93AF93BF93A3
S1130980EF93FF938091440190914501AC01092EAE
S1130990000C660B770B9A01112700274091840005
S11309A05091850060E070E0402B512B622B732B3B
S11309B04093460150934701609348017093490165
S11309C0B09B1AC00196092E000CAA0BBB0BBC01EC
S11309D0552744278091840090918500A0E0B0E0E1
S11309E0842B952BA62BB72B80934601909347011C
S11309F0A0934801B0934901E091EC01F091ED011D
S1130A00309739F063E070E0809154019091550182
S1130A1009950E942E03FF91EF91BF91AF919F9191
S1130A208F917F916F915F914F913F912F911F9182
S1130A300F910F900FBE0F901F9018951F920F9259
S1130A400FB60F9211240F931F932F933F934F933D
S1130A505F936F937F938F939F93AF93BF93EF9322
S1130A60FF938091440190914501AC01092E000C43
S1130A70660B770B9A01112700274091840050914F
S1130A80850060E070E0402B512B622B732B409368
S1130A904601509347016093480170934901B09B0C
S1130AA01AC00196092E000CAA0BBB0BBC015527DA
S1130AB044278091840090918500A0E0B0E0842BCD
S1130AC0952BA62BB72B8093460190934701A093B7
S1130AD04801B0934901E091EE01F091EF013097A4
S1130AE039F064E070E080915601909157010995C6
S1130AF00E942E03FF91EF91BF91AF919F918F912F
S1130B007F916F915F914F913F912F911F910F9121
S1130B100F900FBE0F901F9018951F920F920FB653
S1130B200F9211240F931F932F933F934F935F932F
S1130B306F937F938F939F93AF93BF93EF93FF93A1
S1130B408091440190914501AC01092E000C660B83
S1130B50770B9A011127002740918400509185005A
S1130B6060E070E0402B512B622B732B40934601C5
S1130B70509347016093480170934901B09B1AC098
S1130B800196092E000CAA0BBB0BBC015527442768
S1130B908091840090918500A0E0B0E0842B952B97
S1130BA0A62BB72B8093460190934701A09348014D
S1130BB0B0934901E091F001F091F101309739F0DF
S1130BC065E070E0809158019091590109950E9467
S1130BD02E03FF91EF91BF91AF919F918F917F91E0
S1130BE06F915F914F913F912F911F910F910F90B2
S1130BF00FBE0F901F9018951F920F920FB60F9271
S1130C0011240F931F932F933F934F935F936F93ED
S1130C107F938F939F93AF93BF93EF93FF938091B1
S1130C20440190914501AC01092E000C660B770B31
S1130C309A0111270027409184005091850060E0BB
S1130C4070E0402B512B622B732B40934601509341
S1130C5047016093480170934901B09B1AC0019603
S1130C60092E000CAA0BBB0BBC015527442780910D
S1130C70840090918500A0E0B0E0842B952BA62BF6
S1130C80B72B8093460190934701A0934801B093FA
S1130C904901E091F201F091F301309739F066E0F7
S1130CA070E080915A0190915B0109950E942E0396
S1130CB0FF91EF91BF91AF919F918F917F916F9130
S1130CC05F914F913F912F911F910F910F900FBE04
S1130CD00F901F9018951F920F920FB60F92112428
S1130CE00F931F932F933F934F935F936F937F9330
S1130CF08F939F93AF93BF93EF93FF93809144019E
S1130D0090914501AC01092E000C660B770B9A01FA
S1130D1011270027409184005091850060E070E025
S1130D20402B512B622B732B409346015093470168
S1130D306093480170934901B09B1AC00196092E33
S1130D40000CAA0BBB0BBC015527442780918400DF
S1130D5090918500A0E0B0E0842B952BA62BB72BB7
S1130D608093460190934701A0934801B0934901B1
S1130D70E091F401F091F501309739F067E070E00B
S1130D8080915C0190915D0109950E942E03FF9171
S1130D90EF91BF91AF919F918F917F916F915F91EF
S1130DA04F913F912F911F910F910F900FBE0F9074
S1130DB01F9018951F920F920FB60F9211240F9344
S1130DC01F932F933F934F935F936F937F938F93CF
S1130DD09F93AF93BF93EF93FF93809144019091BE
S1130DE04501AC01092E000C660B770B9A01112703
S1130DF00027409184005091850060E070E0402B12
S1130E00512B622B732B40934601509347016093FF
S1130E10480170934901B09B1AC00196092E000C39
S1130E20AA0BBB0BBC0155274427809184009091E9
S1130E308500A0E0B0E0842B952BA62BB72B8093E4
S1130E40460190934701A0934801B0934901E09172
S1130E50F601F091F701309739F068E070E0809185
S1130E605E0190915F0109950E942E03FF91EF911D
S1130E70BF91AF919F918F917F916F915F914F91AE
S1130E803F912F911F910F910F900FBE0F901F90C4
S1130E9018951F920F920FB60F9211240F931F9360
S1130EA02F933F934F935F936F937F938F939F936E
S1130EB0AF93BF93EF93FF938091440190914501C9
S1130EC0AC01092E000C660B770B9A011127002741
S1130ED0409184005091850060E070E0402B512BDC
S1130EE0622B732B40934601509347016093480152
S1130EF070934901B09B1AC00196092E000CAA0BED
S1130F00BB0BBC0155274427809184009091850038
S1130F10A0E0B0E0842B952BA62BB72B8093460141
S1130F2090934701A0934801B0934901E091F801DF
S1130F30F091F901309739F069E070E08091600137
S1130F409091610109950E942E03FF91EF91BF9149
S1130F50AF919F918F917F916F915F914F913F914D
S1130F602F911F910F910F900FBE0F901F90189506
S1130F701F920F920FB60F9211240F931F932F936A
S1130F803F934F935F936F937F938F939F93AF930D
S1130F90BF93EF93FF938091440190914501AC017D
S1130FA0092E000C660B770B9A011127002740913C
S1130FB084005091850060E070E0402B512B622B3F
S1130FC0732B4093460150934701609348017093FB
S1130FD04901B09B1AC00196092E000CAA0BBB0B49
S1130FE0BC01552744278091840090918500A0E09E
S1130FF0B0E0842B952BA62BB72B809346019093BE
S11310004701A0934801B0934901E091FA01F0919E
S1131010FB01309739F06AE070E0809162019091B1
S1131020630109950E942E03FF91EF91BF91AF9147
S11310309F918F917F916F915F914F913F912F91EC
S11310401F910F910F900FBE0F901F9018951F9234
S11310500F920FB60F9211240F931F932F933F9368
S11310604F935F936F937F938F939F93AF93BF93AC
S1131070EF93FF938091440190914501AC01092EB7
S1131080000C660B770B9A0111270027409184000E
S11310905091850060E070E0402B512B622B732B44
S11310A0409346015093470160934801709349016E
S11310B0B09B1AC00196092E000CAA0BBB0BBC01F5
S11310C0552744278091840090918500A0E0B0E0EA
S11310D0842B952BA62BB72B809346019093470125
S11310E0A0934801B0934901E091FC01F091FD0106
S11310F0309739F06BE070E0809164019091650164
S113110009950E942E03FF91EF91BF91AF919F919A
S11311108F917F916F915F914F913F912F911F918B
S11311200F910F900FBE0F901F9018951F920F9262
S11311300FB60F9211240F931F932F933F934F9346
S11311405F936F937F938F939F93AF93BF93EF932B
S1131150FF938091440190914501AC01092E000C4C
S1131160660B770B9A011127002740918400509158
S1131170850060E070E0402B512B622B732B409371
S11311804601509347016093480170934901B09B15
S11311901AC00196092E000CAA0BBB0BBC015527E3
S11311A044278091840090918500A0E0B0E0842BD6
S11311B0952BA62BB72B8093460190934701A093C0
S11311C04801B0934901E091FE01F091FF0130978D
S11311D039F06CE070E080916601909167010995A7
S11311E00E942E03FF91EF91BF91AF919F918F9138
S11311F07F916F915F914F913F912F911F910F912B
S11312000F900FBE0F901F9018951F920F920FB65C
S11312100F9211240F931F932F933F934F935F9338
S11312206F937F938F939F93AF93BF93EF93FF93AA
S11312308091440190914501AC01092E000C660B8C
S1131240770B9A0111270027409184005091850063
S113125060E070E0402B512B622B732B40934601CE
S1131260509347016093480170934901B09B1AC0A1
S11312700196092E000CAA0BBB0BBC015527442771
S11312808091840090918500A0E0B0E0842B952BA0
S1131290A62BB72B8093460190934701A093480156
S11312A0B0934901E0910002F0910102309739F0C6
S11312B06DE070E0809168019091690109950E9448
S11312C02E03FF91EF91BF91AF919F918F917F91E9
S11312D06F915F914F913F912F911F910F910F90BB
S11312E00FBE0F901F9018951F920F920FB60F927A
S11312F011240F931F932F933F934F935F936F93F7
S11313007F938F939F93AF93BF93EF93FF938091BA
S1131310440190914501AC01092E000C660B770B3A
S11313209A0111270027409184005091850060E0C4
S113133070E0402B512B622B732B4093460150934A
S113134047016093480170934901B09B1AC001960C
S1131350092E000CAA0BBB0BBC0155274427809116
S1131360840090918500A0E0B0E0842B952BA62BFF
S1131370B72B8093460190934701A0934801B09303
S11313804901E0910202F0910302309739F06EE0D6
S113139070E080916A0190916B0109950E942E037F
S11313A0FF91EF91BF91AF919F918F917F916F9139
S11313B05F914F913F912F911F910F910F900FBE0D
S11313C00F901F9018951F920F920FB60F92112431
S11313D00F931F932F933F934F935F936F937F9339
S11313E08F939F93AF93BF93EF93FF9380914401A7
S11313F090914501AC01092E000C660B770B9A0104
S113140011270027409184005091850060E070E02E
S1131410402B512B622B732B409346015093470171
S11314206093480170934901B09B1AC00196092E3C
S1131430000CAA0BBB0BBC015527442780918400E8
S113144090918500A0E0B0E0842B952BA62BB72BC0
S11314508093460190934701A0934801B0934901BA
S1131460E0910402F0910502309739F06FE070E0EA
S113147080916C0190916D0109950E942E03FF915A
S1131480EF91BF91AF919F918F917F916F915F91F8
S11314904F913F912F911F910F910F900FBE0F907D
S11314A01F9018951F920F920FB60F9211240F934D
S11314B01F932F933F934F935F936F937F938F93D8
S11314C09F93AF93BF93EF93FF93809144019091C7
S11314D04501AC01092E000C660B770B9A0111270C
S11314E00027409184005091850060E070E0402B1B
S11314F0512B622B732B4093460150934701609309
S1131500480170934901B09B1AC00196092E000C42
S1131510AA0BBB0BBC0155274427809184009091F2
S11315208500A0E0B0E0842B952BA62BB72B8093ED
S1131530460190934701A0934801B0934901E0917B
S11315400602F0910702309739F060E170E0809173
S11315506E0190916F0109950E942E03FF91EF9106
S1131560BF91AF919F918F917F916F915F914F91B7
S11315703F912F911F910F910F900FBE0F901F90CD
S113158018951F920F920FB60F9211240F931F9369
S11315902F933F934F935F936F937F938F939F9377
S11315A0AF93BF93EF93FF938091440190914501D2
S11315B0AC01092E000C660B770B9A01112700274A
S11315C0409184005091850060E070E0402B512BE5
S11315D0622B732B4093460150934701609348015B
S11315E070934901B09B1AC00196092E000CAA0BF6
S11315F0BB0BBC0155274427809184009091850042
S1131600A0E0B0E0842B952BA62BB72B809346014A
S113161090934701A0934801B0934901E0910802D7
S1131620F0910902309739F061E170E08091700126
S11316309091710109950E942E03FF91EF91BF9142
S1131640AF919F918F917F916F915F914F913F9156
S11316502F911F910F910F900FBE0F901F9018950F
S11316600E942E03789481E083BF8895FCCF1F925B
S11316700F920FB60F9211242F933F934F935F93C2
S11316806F937F938F939F93EF93FF938091440184
S11316909091450101969093450180934401E09116
S11316A04A01F0914B01309701F1428153816481E9
S11316B0758186179707C9F4CA0120918400309177
S11316C08500421B530B4130510529F4809184005D
S11316D09091850001969093890080938800EFE6AD
S11316E0F0E080818260808305C0EFE6F0E08081D5
S11316F08D7F8083FF91EF919F918F917F916F9167
S11317005F914F913F912F910F900FBE0F901F90BB
S113171018951F920F920FB60F921124CF92DF9259
S1131720EF92FF922F933F934F935F936F937F9327
S11317308F939F93AF93BF93EF93FF938091440153
S1131740909145016C01092E000CEE08FF0876010A
S1131750DD24CC24409184005091850060E070E049
S1131760C42AD52AE62AF72AB09B1EC06C012FEFA3
S1131770C21AD20A0D2C000CEE08FF08D6019927D4
S11317808827C0908400D0908500E12CF12CC82AD1
S1131790D92AEA2AFB2A08C08AE491E00E94F902C5
S11317A06CE471E00E949702E0914A01F0914B01D0
S11317B0309769F082819381A481B5818C199D0948
S11317C0AE09BF09181619061A061B062CF730971E
S11317D021F182819381A481B581209144013091CA
S11317E045012A173B07C9F49C014091840050919C
S11317F08500841B950B019731F42091840030916E
S113180085002F5F3F4F3093890020938800EFE6D7
S1131810F0E080818260808305C0EFE6F0E08081A3
S11318208D7F80830E942E03FF91EF91BF91AF9132
S11318309F918F917F916F915F914F913F912F91E4
S1131840FF90EF90DF90CF900F900FBE0F901F90FE
S113185018953F924F925F926F927F928F929F92D0
S1131860AF92BF92CF92DF92EF92FF920F931F93AA
S1131870CF93DF932B013C0149015A018FB7807844
S1131880382EF8948AE391E00E94F902EC011B8758
S11318900A87FD86EC86DF86CE86332061F0E091F0
S11318A03401F09135010280F381E02D828193812E
S11318B0A481B58108C08091460190914701A0910F
S11318C04801B0914901480E591E6A1E7B1E4A8286
S11318D05B826C827D82181419041A041B0444F080
S11318E00F2E88248A94982CA82CFFE7BF2EF02D65
S11318F0840C951CA61CB71C8E829F82A886B98670
S11319002091440130914501C901032E000CAA0B1A
S1131910BB0BDC01992788274091840050918500F6
S113192060E070E0842B952BA62BB72BB09B13C0E3
S1131930C9010196092E000CAA0BBB0BDC019927E7
S11319408827409184005091850060E070E0842BEA
S1131950952BA62BB72B481A590A6A0A7B0A14142A
S1131960150416041704ACF56AE471E0CE010E9474
S1131970C802E0914A01F0914B01309721F1828134
S11319809381A481B58120914401309145012A17A6
S11319903B07C9F49C014091840050918500841B4D
S11319A0950B019731F420918400309185002F5FCD
S11319B03F4F3093890020938800EFE6F0E0808168
S11319C08260808339C0EFE6F0E080818D7F808380
S11319D033C06CE471E0CE010E949702332061F1C0
S11319E08091380190913901892B31F1E0914C01BA
S11319F0F0914D0186819781A085B185E0913601F2
S1131A00F09137010280F381E02D46815781608592
S1131A107185841B950BA60BB70B72F488E391E0D8
S1131A200E94240366E371E00E941A038091360148
S1131A30909137010E947702332009F07894CE0107
S1131A40DF91CF911F910F91FF90EF90DF90CF9096
S1131A50BF90AF909F908F907F906F905F904F90CA
S1131A603F900895CF92DF92EF92FF920F931F93CE
S1131A70CF93DF93EC017B016A011FB71078F894D0
S1131A80A881B981109719F435C0A081B181149649
S1131A90ED91FC9115973097C1F720913401309165
S1131AA03501A217B30711F0111107C0112309F46E
S1131AB04AC078948FEF9FEF4EC08A819B81009734
S1131AC019F0FC01158214823B832A83F901D58322
S1131AD0C483CD010E947702E0913401F091350175
S1131AE082819381892B31F4112381F1789480E0F0
S1131AF090E031C0809134019091350199838883BD
S1131B00112329F08A819B81019709F07894B60109
S1131B10CE01F7010995F82E092F8FB7F894198291
S1131B2018828A819B818230910538F01B821A8247
S1131B30FC01158214820E947702112351F07894DB
S1131B408F2D902F08C08FEF9FEF05C080E090E0AD
S1131B5002C08F2D902FDF91CF911F910F91FF9095
S1131B60EF90DF90CF9008950091340110913501EA
S1131B708CE491E00E94F902EC01F80193838283E2
S1131B8078946C857D854E855F858A859B850E94CA
S1131B90320D8FB7F8946AE371E0CE010E9410030E
S1131BA0E0913601F09137010190F081E02DC2817E
S1131BB0D381E0914C01F0914D013097A1F0209731
S1131BC099F286819781A085B1854E815F81688570
S1131BD07985841B950BA60BB70B181619061A06E4
S1131BE01B060CF0C1CF86E391E00E94240368E356
S1131BF071E00E941A03A0913601B091370102C02E
S1131C00A081B1811496ED91FC9115973097C1F79D
S1131C10CD010E947702A8CF8C017B016A018FB7A6
S1131C20F8940E94D8017894E114F10441F020E082
S1131C3030E0A90160E070E0CB010E94290C8FB76D
S1131C40F8940E94300B6430710519F48EB18061F0
S1131C508EB96630710519F48EB180648EB9089519
S1131C606430710519F48EB1807E8EB966307105C9
S1131C7019F48EB1807B8EB90895052E97FB1EF45E
S1131C8000940E94540E57FD07D00E94670E07FC73
S1131C9003D04EF40C94540E5095409530952195F4
S1131CA03F4F4F4F5F4F0895909580957095619584
S1131CB07F4F8F4F9F4F08950E94890EA59F900DCF
S1131CC0B49F900DA49F800D911D11240895A1E24D
S1131CD01A2EAA1BBB1BFD010DC0AA1FBB1FEE1FA2
S1131CE0FF1FA217B307E407F50720F0A21BB30BED
S1131CF0E40BF50B661F771F881F991F1A9469F769
S1131D0060957095809590959B01AC01BD01CF01C4
S1131D100895A29FB001B39FC001A39F700D811DC0
S1131D201124911DB29F700D811D1124911D0895E0
S1131D30DC012D923D924D925D926D927D928D9239
S1131D409D92AD92BD92CD92DD92ED92FD920D9356
S1131D501D93CD93DD93FF91EF918DB78D938EB746
S1131D608D938FB78D93ED93FD93882799270994CD
S1131D70DC01CB0181309105811D2D903D904D906A
S1131D805D906D907D908D909D90AD90BD90CD9027
S1131D90DD90ED90FD900D911D91CD91DD91ED9132
S1131DA0FD910D90F894FEBF0FBEEDBFED91FD9136
S1091DB00994F894FFCF32
S1131DB651151801111E111B500B411B411F0940DF
S1131DC6511F511B00000000040000000000060023
S1131DD600003C01000000000000000000000400B8
S10F1DE600003C010A020A0272012702FC
S9030000FC
