S00D00004C616262342E7372656372
S11300000C942E000C947C040C94EB040C945A0570
S11300100C94C9050C9438060C944B000C94A30C56
S11300200C944B000C94510C0C94A7060C941607DA
S11300300C9485070C94F4070C9463080C94D20870
S11300400C9441090C94B0090C941F0A0C948E0A68
S11300500C94FD0A0C946C0B0C94DB0B11241FBE46
S1130060CFEFD4E0DEBFCDBF11E0A0E0B1E0E8E91E
S1130070F0E202C005900D92A835B107D9F724E04B
S1130080A8E5B1E001C01D92A33BB207E1F70E94CD
S1130090B7010C944A100C94000046305105B8F591
S11300A06A3048F4E62FF0E0EE0FFF1FE050FF4FF8
S11300B06081718102C060E070E040FF03C0AFE086
S11300C0B4E002C0A0EFB0E055954795FA01E451C1
S11300D0FF4F20E030E018C0862F8F7090E00B2E89
S11300E002C0880F991F0A94E2F790819A23892B02
S11300F080837595679575956795759567957595DD
S1130100679535962F5F3F4F243031052CF30895C2
S1130110EF92FF920F931F93CF93DF93EC017B0138
S1130120CB0164E670E00E94860F0AE010E0B8019B
S11301300E94860F40E050E0CE010E944D00C701AE
S1130140B8010E94860F41E050E0682FCE010E9462
S11301504D00DF91CF911F910F91FF90EF90089583
S1130160EF92FF920F931F93CF93DF93EC017B01E8
S1130170CB0164E670E00E94860F0AE010E0B8014B
S11301800E94860F44E050E0CE010E944D00C7015A
S1130190B8010E94860F45E050E0682FCE010E940E
S11301A04D00DF91CF911F910F91FF90EF90089533
S11301B0CF93DF93EC01E4EEF0E0808180688083EC
S11301C087EB8093E500E7EEF0E080818F60808329
S11301D087E08093E60085B1806D85B98EB18C602F
S11301E08EB98FE284B980E58DB980EC8DBB9CE03B
S11301F090936B0090ED90936C008093800088E165
S113020080938100E1E6F0E080E88083108260E082
S113021070E0CE010E94880060E070E0CE010E9490
S1130220B000ECEEF0E0808180648083DF91CF91B8
S11302300895CF92DF92EF92FF920F931F93CF9383
S1130240DF93EC010E811F81C12CD12C0F2EF2ED16
S1130250EF2EF1E0FF2EF02D20E030E0A90160E068
S113026070E0CB010E94430D0885198520E030E041
S1130270A90160E070E0CB010E94430DDF91CF91B2
S11302801F910F91FF90EF90DF90CF900895CF9240
S1130290DF92EF92FF920F931F93CF93DF93EC01C2
S11302A01F9912C00A851B85C12CD12C0F2EF7E88B
S11302B0EF2EF2E0FF2EF02D20E030E0A90160E007
S11302C070E0CB010E94430D1E9912C00A851B8564
S11302D0C12CD12C0F2EFFE3EF2EF2E0FF2EF02DD8
S11302E020E030E0A90160E070E0CB010E94430D02
S11302F01C9912C00A851B85C12CD12C0F2EFDEC34
S1130300EF2EF2E0FF2EF02D20E030E0A90160E0B6
S113031070E0CB010E94430DDF91CF911F910F91AB
S1130320FF90EF90DF90CF900895FC0162990EC08A
S11303308681978193878287ADEEB0E08C918F7927
S11303408C93ACEEB0E08C9180648C9363990EC076
S11303508085918593878287ECEEF0E080818F79A8
S11303608083EDEEF0E080818062808308958CE5E7
S113037091E00E94D80042E067E471E084E191E0FA
S11303800E94260F41E065E971E084E191E00E945A
S1130390260F40E050E069E171E084E191E00E94C1
S11303A0410FFFCFCF92DF92EF92FF920F931F93F3
S11303B0CF93DF93EC012E813F812115310599F410
S11303C0C12CD12C0F2EF2EDEF2EF1E0FF2EF02DEB
S11303D08C0120E030E0A90162E17AE780E090E05E
S11303E00E94430D43C0032E000C440B550B60E4E4
S11303F072E48FE090E00E949A0FADE7B0E00E94B3
S1130400B90F20EA3FE040E050E00E949A0FCA0191
S1130410B901C12CD12C0F2EF2EDEF2EF1E0FF2EFD
S1130420F02D8E0120E030E0A9010E94430D8C855F
S11304309D85892B49F04A855B8568E57FE08E853B
S11304409F850E944C0E08C04A855B856FE67FE05D
S11304508E859F850E944C0E2C853D8581E090E021
S1130460232B11F080E090E09D878C87DF91CF9162
S11304701F910F91FF90EF90DF90CF900895CF924E
S1130480DF92EF92FF920F931F93CF93DF93EC01D0
S11304908E819F818336910524F401969F838E83F8
S11304A004C083E690E09F838E838C819D81892B99
S11304B049F44E815F8168E870E0888999890E94D7
S11304C04C0E08C04E815F8160EB70E08889998989
S11304D00E944C0E1E9912C0C12CD12C0F2EFFE38A
S11304E0EF2EF2E0FF2EF02D8E0120E030E0A90186
S11304F065E37CE080E090E00E94430DDF91CF91C2
S11305001F910F91FF90EF90DF90CF900895CF92BD
S1130510DF92EF92FF920F931F93CF93DF93EC013F
S11305208E819F811816190624F401979F838E8368
S113053002C01F821E828C819D81892B49F44E81C9
S11305405F8168E870E0888999890E944C0E08C030
S11305504E815F8160EB70E0888999890E944C0E1E
S11305601F9912C0C12CD12C0F2EF7E8EF2EF2E008
S1130570FF2EF02D8E0120E030E0A90165E37CE040
S113058080E090E00E94430DDF91CF911F910F9185
S1130590FF90EF90DF90CF900895FC0186819781C2
S11305A0181619062CF4918780871782168204C0C6
S11305B0808591859783868384819581892B49F4ED
S11305C04681578168E870E0808991890E944C0EC9
S11305D008954681578160EB70E0808991890E947B
S11305E04C0E0895CF93DF9300D000D0CDB7DEB783
S11305F080E090E018C0AC014F5F5F4F9A012295F4
S11306003295307F3227207F32272D5B3D4F8295F4
S11306109295907F9827807F9827FC01ED5BFD4F92
S113062031832083CA018E3091052CF31092240368
S11306301092230380E090E015C0AC014F5F5F4F40
S11306406DE1649F9001659F300D112422573E4F48
S1130650689FF001699FF00D1124E257FE4F31832A
S11306602083CA018330910544F31092E60110926D
S1130670E5011A82198232C02DE149815A81249FF1
S1130680C001259F900D1124FC01EC56FE4FFC8304
S1130690EB83CF010E94091020E649815A81249FEF
S11306A0C001259F900D112481579C4FEB81FC8143
S11306B0918B808B938B828B8EEC9EE0968B858BBB
S11306C08DE1849FF001859FF00D1124E257FE4FC8
S11306D0158214824F5F5F4F5A83498329813A817F
S11306E0243031054CF2E6E2F2E0118210821582E8
S11306F0148213821282E1E6F0E080E880831082A3
S1130700109285001092840084E08093810081E03F
S113071080936F000F900F900F900F90DF91CF9107
S11307200895CF93DF9300D0CDB7DEB79A83898342
S1130730809150019091510106960E940910892BD5
S113074059F489819A81909351018093500161E019
S113075070E006960E9429100F900F90DF91CF91C0
S113076008950F931F93CF93DF93DC01CB01EB012B
S1130770E881F981C0E0D0E004C0EF010190F0818C
S1130780E02D309779F00681178120853185169602
S11307904D915D916D917C911997401751076207B6
S11307A073075CF71196FC93EE93209721F4FC01F8
S11307B0B183A08302C0B983A883DF91CF911F9135
S11307C00F9108950F931F93CF93DF93DC01CB0117
S11307D0EB01E881F981C0E0D0E004C0EF010190B1
S11307E0F081E02D309779F00281138124813581E5
S11307F012964D915D916D917C911597401751071B
S1130800620773075CF71196FC93EE93209721F42B
S1130810FC01B183A08302C0B983A883DF91CF9187
S11308201F910F910895DC01ED91FC911197309780
S113083059F48FEF8093EC008093ED008093EE00E9
S113084081E083BF8895FCCF208131812D933C9337
S1130850CF010895FB0120813181FC013183208384
S1130860FB01918380830895FB0120813181FC0188
S113087031832083FB01918380830895DC01ED9112
S1130880FC911197208131812D933C93CF010895E0
S1130890CF93DF93E0915201F0915301C281D38150
S11308A0E0916801F0916901309719F18091540148
S11308B090915501892BE9F0209769F08681978101
S11308C0A085B1854E815F8168857985841B950BF0
S11308D0A60BB70B72F484E591E00E943E0462E536
S11308E071E00E94340480915201909153010E945E
S11308F09103DF91CF9108951F920F920FB60F923B
S113090011240F931F932F933F934F935F936F93F0
S11309107F938F939F93AF93BF93EF93FF938091B4
S1130920600190916101AC01092E000C660B770BFC
S11309309A0111270027409184005091850060E0BE
S113094070E0402B512B622B732B40936201509328
S113095063016093640170936501B09B1AC00196B2
S1130960092E000CAA0BBB0BBC0155274427809110
S1130970840090918500A0E0B0E0842B952BA62BF9
S1130980B72B8093620190936301A0936401B093A9
S11309906501E0910202F0910302309739F060E0C2
S11309A070E080916A0190916B0109950E9448045E
S11309B0FF91EF91BF91AF919F918F917F916F9133
S11309C05F914F913F912F911F910F910F900FBE07
S11309D00F901F9018951F920F920FB60F9211242B
S11309E00F931F932F933F934F935F936F937F9333
S11309F08F939F93AF93BF93EF93FF938091600185
S1130A0090916101AC01092E000C660B770B9A01E1
S1130A1011270027409184005091850060E070E028
S1130A20402B512B622B732B409362015093630133
S1130A306093640170936501B09B1AC00196092EFE
S1130A40000CAA0BBB0BBC015527442780918400E2
S1130A5090918500A0E0B0E0842B952BA62BB72BBA
S1130A608093620190936301A0936401B093650144
S1130A70E0910402F0910502309739F061E070E0F2
S1130A8080916C0190916D0109950E944804FF9139
S1130A90EF91BF91AF919F918F917F916F915F91F2
S1130AA04F913F912F911F910F910F900FBE0F9077
S1130AB01F9018951F920F920FB60F9211240F9347
S1130AC01F932F933F934F935F936F937F938F93D2
S1130AD09F93AF93BF93EF93FF93809160019091A5
S1130AE06101AC01092E000C660B770B9A011127EA
S1130AF00027409184005091850060E070E0402B15
S1130B00512B622B732B40936201509363016093CA
S1130B10640170936501B09B1AC00196092E000C04
S1130B20AA0BBB0BBC0155274427809184009091EC
S1130B308500A0E0B0E0842B952BA62BB72B8093E7
S1130B40620190936301A0936401B0936501E09105
S1130B500602F0910702309739F062E070E080916C
S1130B606E0190916F0109950E944804FF91EF91E5
S1130B70BF91AF919F918F917F916F915F914F91B1
S1130B803F912F911F910F910F900FBE0F901F90C7
S1130B9018951F920F920FB60F9211240F931F9363
S1130BA02F933F934F935F936F937F938F939F9371
S1130BB0AF93BF93EF93FF93809160019091610194
S1130BC0AC01092E000C660B770B9A011127002744
S1130BD0409184005091850060E070E0402B512BDF
S1130BE0622B732B40936201509363016093640101
S1130BF070936501B09B1AC00196092E000CAA0BD4
S1130C00BB0BBC015527442780918400909185003B
S1130C10A0E0B0E0842B952BA62BB72B8093620128
S1130C2090936301A0936401B0936501E09108027D
S1130C30F0910902309739F063E070E0809170011F
S1130C409091710109950E944804FF91EF91BF9121
S1130C50AF919F918F917F916F915F914F913F9150
S1130C602F911F910F910F900FBE0F901F90189509
S1130C701F920F920FB60F9211240F931F932F936D
S1130C803F934F935F936F937F938F939F93AF9310
S1130C90BF93EF93FF938091600190916101AC0148
S1130CA0092E000C660B770B9A011127002740913F
S1130CB084005091850060E070E0402B512B622B42
S1130CC0732B4093620150936301609364017093AA
S1130CD06501B09B1AC00196092E000CAA0BBB0B30
S1130CE0BC01552744278091840090918500A0E0A1
S1130CF0B0E0842B952BA62BB72B809362019093A5
S1130D006301A0936401B0936501E0910A02F0913C
S1130D100B02309739F064E070E080917201909199
S1130D20730109950E944804FF91EF91BF91AF911F
S1130D309F918F917F916F915F914F913F912F91EF
S1130D401F910F910F900FBE0F901F9018951F9237
S1130D500F920FB60F9211240F931F932F933F936B
S1130D604F935F936F937F938F939F93AF93BF93AF
S1130D70EF93FF938091600190916101AC01092E82
S1130D80000C660B770B9A01112700274091840011
S1130D905091850060E070E0402B512B622B732B47
S1130DA04093620150936301609364017093650101
S1130DB0B09B1AC00196092E000CAA0BBB0BBC01F8
S1130DC0552744278091840090918500A0E0B0E0ED
S1130DD0842B952BA62BB72B8093620190936301F0
S1130DE0A0936401B0936501E0910C02F0910D02AF
S1130DF0309739F065E070E080917401909175014D
S1130E0009950E944804FF91EF91BF91AF919F9182
S1130E108F917F916F915F914F913F912F911F918E
S1130E200F910F900FBE0F901F9018951F920F9265
S1130E300FB60F9211240F931F932F933F934F9349
S1130E405F936F937F938F939F93AF93BF93EF932E
S1130E50FF938091600190916101AC01092E000C17
S1130E60660B770B9A01112700274091840050915B
S1130E70850060E070E0402B512B622B732B409374
S1130E806201509363016093640170936501B09BA8
S1130E901AC00196092E000CAA0BBB0BBC015527E6
S1130EA044278091840090918500A0E0B0E0842BD9
S1130EB0952BA62BB72B8093620190936301A0938B
S1130EC06401B0936501E0910E02F0910F02309736
S1130ED039F066E070E08091760190917701099590
S1130EE00E944804FF91EF91BF91AF919F918F9120
S1130EF07F916F915F914F913F912F911F910F912E
S1130F000F900FBE0F901F9018951F920F920FB65F
S1130F100F9211240F931F932F933F934F935F933B
S1130F206F937F938F939F93AF93BF93EF93FF93AD
S1130F308091600190916101AC01092E000C660B57
S1130F40770B9A0111270027409184005091850066
S1130F5060E070E0402B512B622B732B40936201B5
S1130F60509363016093640170936501B09B1AC050
S1130F700196092E000CAA0BBB0BBC015527442774
S1130F808091840090918500A0E0B0E0842B952BA3
S1130F90A62BB72B8093620190936301A093640105
S1130FA0B0936501E0911002F0911102309739F08D
S1130FB067E070E0809178019091790109950E9431
S1130FC04804FF91EF91BF91AF919F918F917F91D1
S1130FD06F915F914F913F912F911F910F910F90BE
S1130FE00FBE0F901F9018951F920F920FB60F927D
S1130FF011240F931F932F933F934F935F936F93FA
S11310007F938F939F93AF93BF93EF93FF938091BD
S1131010600190916101AC01092E000C660B770B05
S11310209A0111270027409184005091850060E0C7
S113103070E0402B512B622B732B40936201509331
S113104063016093640170936501B09B1AC00196BB
S1131050092E000CAA0BBB0BBC0155274427809119
S1131060840090918500A0E0B0E0842B952BA62B02
S1131070B72B8093620190936301A0936401B093B2
S11310806501E0911202F0911302309739F068E0A3
S113109070E080917A0190917B0109950E94480447
S11310A0FF91EF91BF91AF919F918F917F916F913C
S11310B05F914F913F912F911F910F910F900FBE10
S11310C00F901F9018951F920F920FB60F92112434
S11310D00F931F932F933F934F935F936F937F933C
S11310E08F939F93AF93BF93EF93FF93809160018E
S11310F090916101AC01092E000C660B770B9A01EB
S113110011270027409184005091850060E070E031
S1131110402B512B622B732B40936201509363013C
S11311206093640170936501B09B1AC00196092E07
S1131130000CAA0BBB0BBC015527442780918400EB
S113114090918500A0E0B0E0842B952BA62BB72BC3
S11311508093620190936301A0936401B09365014D
S1131160E0911402F0911502309739F069E070E0D3
S113117080917C0190917D0109950E944804FF9122
S1131180EF91BF91AF919F918F917F916F915F91FB
S11311904F913F912F911F910F910F900FBE0F9080
S11311A01F9018951F920F920FB60F9211240F9350
S11311B01F932F933F934F935F936F937F938F93DB
S11311C09F93AF93BF93EF93FF93809160019091AE
S11311D06101AC01092E000C660B770B9A011127F3
S11311E00027409184005091850060E070E0402B1E
S11311F0512B622B732B40936201509363016093D4
S1131200640170936501B09B1AC00196092E000C0D
S1131210AA0BBB0BBC0155274427809184009091F5
S11312208500A0E0B0E0842B952BA62BB72B8093F0
S1131230620190936301A0936401B0936501E0910E
S11312401602F0911702309739F06AE070E080914D
S11312507E0190917F0109950E944804FF91EF91CE
S1131260BF91AF919F918F917F916F915F914F91BA
S11312703F912F911F910F910F900FBE0F901F90D0
S113128018951F920F920FB60F9211240F931F936C
S11312902F933F934F935F936F937F938F939F937A
S11312A0AF93BF93EF93FF9380916001909161019D
S11312B0AC01092E000C660B770B9A01112700274D
S11312C0409184005091850060E070E0402B512BE8
S11312D0622B732B4093620150936301609364010A
S11312E070936501B09B1AC00196092E000CAA0BDD
S11312F0BB0BBC0155274427809184009091850045
S1131300A0E0B0E0842B952BA62BB72B8093620131
S113131090936301A0936401B0936501E091180276
S1131320F0911902309739F06BE070E08091800100
S11313309091810109950E944804FF91EF91BF911A
S1131340AF919F918F917F916F915F914F913F9159
S11313502F911F910F910F900FBE0F901F90189512
S11313601F920F920FB60F9211240F931F932F9376
S11313703F934F935F936F937F938F939F93AF9319
S1131380BF93EF93FF938091600190916101AC0151
S1131390092E000C660B770B9A0111270027409148
S11313A084005091850060E070E0402B512B622B4B
S11313B0732B4093620150936301609364017093B3
S11313C06501B09B1AC00196092E000CAA0BBB0B39
S11313D0BC01552744278091840090918500A0E0AA
S11313E0B0E0842B952BA62BB72B809362019093AE
S11313F06301A0936401B0936501E0911A02F09136
S11314001B02309739F06CE070E08091820190917A
S1131410830109950E944804FF91EF91BF91AF9118
S11314209F918F917F916F915F914F913F912F91F8
S11314301F910F910F900FBE0F901F9018951F9240
S11314400F920FB60F9211240F931F932F933F9374
S11314504F935F936F937F938F939F93AF93BF93B8
S1131460EF93FF938091600190916101AC01092E8B
S1131470000C660B770B9A0111270027409184001A
S11314805091850060E070E0402B512B622B732B50
S1131490409362015093630160936401709365010A
S11314A0B09B1AC00196092E000CAA0BBB0BBC0101
S11314B0552744278091840090918500A0E0B0E0F6
S11314C0842B952BA62BB72B8093620190936301F9
S11314D0A0936401B0936501E0911C02F0911D0298
S11314E0309739F06DE070E080918401909185012E
S11314F009950E944804FF91EF91BF91AF919F918C
S11315008F917F916F915F914F913F912F911F9197
S11315100F910F900FBE0F901F9018951F920F926E
S11315200FB60F9211240F931F932F933F934F9352
S11315305F936F937F938F939F93AF93BF93EF9337
S1131540FF938091600190916101AC01092E000C20
S1131550660B770B9A011127002740918400509164
S1131560850060E070E0402B512B622B732B40937D
S11315706201509363016093640170936501B09BB1
S11315801AC00196092E000CAA0BBB0BBC015527EF
S113159044278091840090918500A0E0B0E0842BE2
S11315A0952BA62BB72B8093620190936301A09394
S11315B06401B0936501E0911E02F0911F0230971F
S11315C039F06EE070E08091860190918701099571
S11315D00E944804FF91EF91BF91AF919F918F9129
S11315E07F916F915F914F913F912F911F910F9137
S11315F00F900FBE0F901F9018951F920F920FB669
S11316000F9211240F931F932F933F934F935F9344
S11316106F937F938F939F93AF93BF93EF93FF93B6
S11316208091600190916101AC01092E000C660B60
S1131630770B9A011127002740918400509185006F
S113164060E070E0402B512B622B732B40936201BE
S1131650509363016093640170936501B09B1AC059
S11316600196092E000CAA0BBB0BBC01552744277D
S11316708091840090918500A0E0B0E0842B952BAC
S1131680A62BB72B8093620190936301A09364010E
S1131690B0936501E0912002F0912102309739F076
S11316A06FE070E0809188019091890109950E9412
S11316B04804FF91EF91BF91AF919F918F917F91DA
S11316C06F915F914F913F912F911F910F910F90C7
S11316D00FBE0F901F9018951F920F920FB60F9286
S11316E011240F931F932F933F934F935F936F9303
S11316F07F938F939F93AF93BF93EF93FF938091C7
S1131700600190916101AC01092E000C660B770B0E
S11317109A0111270027409184005091850060E0D0
S113172070E0402B512B622B732B4093620150933A
S113173063016093640170936501B09B1AC00196C4
S1131740092E000CAA0BBB0BBC0155274427809122
S1131750840090918500A0E0B0E0842B952BA62B0B
S1131760B72B8093620190936301A0936401B093BB
S11317706501E0912202F0912302309739F060E193
S113178070E080918A0190918B0109950E94480430
S1131790FF91EF91BF91AF919F918F917F916F9145
S11317A05F914F913F912F911F910F910F900FBE19
S11317B00F901F9018951F920F920FB60F9211243D
S11317C00F931F932F933F934F935F936F937F9345
S11317D08F939F93AF93BF93EF93FF938091600197
S11317E090916101AC01092E000C660B770B9A01F4
S11317F011270027409184005091850060E070E03B
S1131800402B512B622B732B409362015093630145
S11318106093640170936501B09B1AC00196092E10
S1131820000CAA0BBB0BBC015527442780918400F4
S113183090918500A0E0B0E0842B952BA62BB72BCC
S11318408093620190936301A0936401B093650156
S1131850E0912402F0912502309739F061E170E0C3
S113186080918C0190918D0109950E944804FF910B
S1131870EF91BF91AF919F918F917F916F915F9104
S11318804F913F912F911F910F910F900FBE0F9089
S11318901F9018950E944804789481E083BF88952E
S11318A0FCCF1F920F920FB60F9211242F933F93E8
S11318B04F935F936F937F938F939F93EF93FF93D4
S11318C080916001909161010196909361018093F0
S11318D06001E0916601F0916701309701F1428166
S11318E053816481758186179707C9F4CA012091D1
S11318F0840030918500421B530B4130510529F47B
S11319008091840090918500019690938900809342
S11319108800EFE6F0E080818260808305C0EFE616
S1131920F0E080818D7F8083FF91EF919F918F9173
S11319307F916F915F914F913F912F910F900FBEC7
S11319400F901F9018951F920F920FB60F921124AB
S1131950CF92DF92EF92FF922F933F934F935F9337
S11319606F937F938F939F93AF93BF93EF93FF9363
S113197080916001909161016C01092E000CEE08C8
S1131980FF087601DD24CC24409184005091850029
S113199060E070E0C42AD52AE62AF72AB09B1EC06C
S11319A06C012FEFC21AD20A0D2C000CEE08FF08AE
S11319B0D60199278827C0908400D0908500E12C17
S11319C0F12CC82AD92AEA2AFB2A08C086E691E023
S11319D00E94130468E671E00E94B103E09166017D
S11319E0F0916701309769F082819381A481B58178
S11319F08C199D09AE09BF09181619061A061B068B
S1131A002CF7309721F182819381A481B5812091B3
S1131A106001309161012A173B07C9F49C01409190
S1131A20840050918500841B950B019731F420911B
S1131A308400309185002F5F3F4F309389002093BD
S1131A408800EFE6F0E080818260808305C0EFE6E5
S1131A50F0E080818D7F80830E944804FF91EF91A4
S1131A60BF91AF919F918F917F916F915F914F91B2
S1131A703F912F91FF90EF90DF90CF900F900FBE8A
S1131A800F901F9018953F924F925F926F927F92A2
S1131A908F929F92AF92BF92CF92DF92EF92FF927A
S1131AA00F931F93CF93DF932B013C0149015A01FC
S1131AB08FB78078382EF89486E591E00E9413045D
S1131AC0EC011B870A87FD86EC86DF86CE863320F1
S1131AD061F0E0915001F09151010280F381E02D19
S1131AE082819381A481B58108C080916201909123
S1131AF06301A0916401B0916501480E591E6A1EEC
S1131B007B1E4A825B826C827D82181419041A043B
S1131B101B0444F00F2E88248A94982CA82CFFE7E9
S1131B20BF2EF02D840C951CA61CB71C8E829F82A0
S1131B30A886B9862091600130916101C901032E04
S1131B40000CAA0BBB0BDC01992788274091840069
S1131B505091850060E070E0842B952BA62BB72B69
S1131B60B09B13C0C9010196092E000CAA0BBB0B34
S1131B70DC0199278827409184005091850060E01A
S1131B8070E0842B952BA62BB72B481A590A6A0AA6
S1131B907B0A1414150416041704ACF566E671E008
S1131BA0CE010E94E203E0916601F0916701309753
S1131BB021F182819381A481B581209160013091CA
S1131BC061012A173B07C9F49C014091840050919C
S1131BD08500841B950B019731F42091840030918A
S1131BE085002F5F3F4F3093890020938800EFE6F4
S1131BF0F0E080818260808339C0EFE6F0E080818C
S1131C008D7F808333C068E671E0CE010E94B1030A
S1131C10332061F18091540190915501892B31F168
S1131C20E0916801F091690186819781A085B18571
S1131C30E0915201F09153010280F381E02D46813D
S1131C40578160857185841B950BA60BB70B72F4C5
S1131C5084E591E00E943E0462E571E00E94340450
S1131C6080915201909153010E949103332009F015
S1131C707894CE01DF91CF911F910F91FF90EF9057
S1131C80DF90CF90BF90AF909F908F907F906F9098
S1131C905F904F903F900895CF92DF92EF92FF9222
S1131CA00F931F93CF93DF93EC017B016A011FB75E
S1131CB01078F894A881B981109719F435C0A081DF
S1131CC0B1811496ED91FC9115973097C1F720914D
S1131CD0500130915101A217B30711F0111107C03F
S1131CE0112309F44AC078948FEF9FEF4EC08A8184
S1131CF09B81009719F0FC01158214823B832A838F
S1131D00F901D583C483CD010E949103E091500170
S1131D10F091510182819381892B31F4112381F156
S1131D20789480E090E031C080915001909151010D
S1131D3099838883112329F08A819B81019709F073
S1131D407894B601CE01F7010995F82E092F8FB7C3
S1131D50F894198218828A819B818230910538F027
S1131D601B821A82FC01158214820E9491031123A2
S1131D7051F078948F2D902F08C08FEF9FEF05C0FE
S1131D8080E090E002C08F2D902FDF91CF911F91C2
S1131D900F91FF90EF90DF90CF9008950091500144
S1131DA01091510188E691E00E941304EC01F801BE
S1131DB09383828378946C857D854E855F858A853F
S1131DC09B850E944C0E8FB7F89466E571E0CE01B6
S1131DD00E942A04E0915201F09153010190F08194
S1131DE0E02DC281D381E0916801F09169013097BF
S1131DF0A1F0209799F286819781A085B1854E81C3
S1131E005F8168857985841B950BA60BB70B181623
S1131E1019061A061B060CF0C1CF82E591E00E9458
S1131E203E0464E571E00E943404A0915201B09133
S1131E30530102C0A081B1811496ED91FC911597D4
S1131E403097C1F7CD010E949103A8CFFC01423124
S1131E50B8F49FB79078F89450E0440F551FDA0116
S1131E60A659BE4FED93FC93DA01AE5FBD4F6D935F
S1131E707C9321E030E033832283992309F0789422
S1131E8008958C017B016A018FB7F8940E94F202D5
S1131E907894E114F10441F020E030E0A90160E01D
S1131EA070E0CB010E94430D8FB7F8940E944A0C56
S1131EB06430710541F48EB180618EB9EEEEF0E0CC
S1131EC08081806680836630710541F48EB18064C0
S1131ED08EB9EEEEF0E080818660808308956430F0
S1131EE0710541F48EB18F7E8EB9EEEEF0E0808103
S1131EF08F7980836630710541F48EB18F7B8EB902
S1131F00EEEEF0E08081897F8083089597FB072EB1
S1131F1016F4009407D077FD09D00E94C40F07FC83
S1131F2005D03EF4909581959F4F089570956195E5
S1131F307F4F0895052E97FB1EF400940E94B10F65
S1131F4057FD07D00E94D80F07FC03D04EF40C9421
S1131F50B10F50954095309521953F4F4F4F5F4FAE
S1131F60089590958095709561957F4F8F4F9F4F01
S1131F7008950E94FA0FA59F900DB49F900DA49F01
S1131F80800D911D11240895AA1BBB1B51E107C0AC
S1131F90AA1FBB1FA617B70710F0A61BB70B881FF5
S1131FA0991F5A95A9F780959095BC01CD01089584
S1131FB0A1E21A2EAA1BBB1BFD010DC0AA1FBB1F49
S1131FC0EE1FFF1FA217B307E407F50720F0A21BBB
S1131FD0B30BE40BF50B661F771F881F991F1A9428
S1131FE069F760957095809590959B01AC01BD0152
S1131FF0CF010895A29FB001B39FC001A39F700DAC
S1132000811D1124911DB29F700D811D1124911DFC
S11320100895DC012D923D924D925D926D927D92D8
S11320208D929D92AD92BD92CD92DD92ED92FD92F4
S11320300D931D93CD93DD93FF91EF918DB78D9308
S11320408EB78D938FB78D93ED93FD938827992742
S11320500994DC01CB0181309105811D2D903D90C7
S11320604D905D906D907D908D909D90AD90BD90C4
S1132070CD90DD90ED90FD900D911D91CD91DD9170
S1132080ED91FD910D90F894FEBF0FBEEDBFED9163
S10B2090FD910994F894FFCFBF
S113209851151801111E111B500B411B411F0940FA
S11320A8511F511B0000000020013E012C013E017C
S11320B8000000005C013E012C013E01000000000C
S11320C80400000000000600000058015C01000044
S11320D800000000000000000400000058015C013A
S10B20E8260226028E014302C8
S9030000FC
